:100000000C941D020C944E020C944E020C944E0261
:100010000C944E020C944E020C944E020C944E0220
:100020000C944E020C944E020C944E020C944E0210
:100030000C944E020C944E020C944E020C944E0200
:100040000C944E020C944E020C944E020C944E02F0
:100050000C944E020C944E020C944E020C94201CF4
:100060000C944E020C94941C0C946A1C0C944E023A
:100070000C944E020C944E020C944E020C944E02C0
:100080000C944E020C944E020C944E020C944E02B0
:100090000C944E020C944E020C944E020C94CA1C0A
:1000A0000C944E020C944E020C944E020C944E0290
:1000B0000C944E020C944E020C944E020C944E0280
:1000C0000C944E020C944E020C944E020C944E0270
:1000D0000C944E020C944E020C944E020C944E0260
:1000E0000C944E020C941B060C94E2080C94250C04
:1000F0000C9428030C94F9020C9478160C94F811C3
:100100000C9473060C946D0B0C94E7020C94CE0BBC
:100110000C942C030C941A030C94ED020C94B70F5E
:100120000C94340C0C9407120C9435140C94DE0BC4
:100130000C9478140C940C030C9406030C94B508DE
:100140000C945F060C94210C0C942F0C0C94341717
:100150000C941A060C948C080C9402030C94F91756
:100160000C9434160C94B9060C94C60B0C94430FE3
:100170000C9452170C94DE1B0C9414030C94060779
:100180000C9420140C94C8020C94F5020C942418BE
:100190000C945C0F0C94090E0C9450060C94E50B17
:1001A0000C94CE170C945E160C9422030C94AE089B
:1001B0000C94310C0C9423060C94570B0C94810670
:1001C0000C9415160C94930D0C94C4020C948F0B84
:1001D0000C94780B0C94531B0C941E0C0C94E01A8A
:1001E0000C9448260C943E140C94F1020C94CA0B07
:1001F0000C94EE1D0C947E0F0C9427030C94FC02BF
:100200000C949B080C941D0C0C9410030C943B153F
:100210000C941E030C9410130C94050C00407A10DF
:10022000F35A00A0724E18090010A5D4E80000E8A7
:100230007648170000E40B54020000CA9A3B000005
:1002400000E1F505000080969800000040420F0094
:100250000000A08601000000102700000000E80355
:10026000000000006400000000000A000000000020
:100270000100000000002C76D888DC674F0823DFDF
:10028000C1DFAE59E1B1B796E5E3E453C63AE651B2
:10029000997696E8E6C28426EB898C9B62ED407CD9
:1002A0006FFCEFBC9C9F40F2BAA56FA5F490055A75
:1002B0002AF75C936B6CF9676DC11BFCE0E40D479A
:1002C000FEF520E6B500D0ED902E030094357705BD
:1002D0000080841E080000204E0A000000C80C3375
:1002E0003333330F986E12831141EF8D2114893B04
:1002F000E65516CFFEE6DB18D1844B381BF77C1D84
:10030000901DA4BBE424203284725E228100C9F1D6
:1003100024ECA1E53D270000200023002600290051
:100320002C002F003200000100000301060109012A
:1003300000000A0B02090C0D0E080703040100005F
:1003400000000000000000000000000000000000AD
:10035000000000000000000000000000121110006A
:10036000000000000000000000000000000000008D
:1003700000000000000000002200250028002B00E3
:100380002E003100340002010000050108010B01BC
:1003900000002100240027002A002D003000330037
:1003A00001010000040107010A01010210202008D8
:1003B00008102040102040800201020108040201C0
:1003C000010204081020408080402010080402012F
:1003D0008004020180402010080402010804020188
:1003E000010204081020408001020408102040800F
:1003F00005050505070508080808020202020A0AA1
:1004000008080404040401010101010101010303BE
:10041000030303030303040707070C0C0C0C0C0C69
:100420000C0C0202020206060606060606060B0B66
:100430000B0B0B0B0B0BEE1D482611241FBECFEF31
:10044000D1E2DEBFCDBF00E00CBF14E0A0E0B2E01F
:10045000E0E5F9E500E00BBF02C007900D92AE3277
:10046000B107D9F726E0AEE2B4E001C01D92AA3A86
:10047000B207E1F712E0CCE1D2E000E006C021973C
:100480000109802FFE010E940429CB31D10780E0B1
:100490000807A9F70E94031F0C94962C0C940000E7
:1004A000CF93DF93EC01FA013296E60FF71FDC01E0
:1004B0009D012C1B3D0BCF01861B970B4D914423B7
:1004C00011F04193F5CFAC01421B530B640F751F24
:1004D000FB013297308361507109FB012083DF916A
:1004E000CF9108958091580690915906009711F484
:1004F00080E02FC0DC01ED91FC910688F789E02DAA
:10050000199520917B0630917C0681111FC0232B09
:1005100079F78DEF9FEF90937C0680937B06809117
:10052000580690915906DC01ED91FC910680F78107
:10053000E02D19958091580690915906DC01ED91B6
:10054000FC910488F589E02D1995D2CF81E0232B09
:1005500079F608958CBD9DBD0895CF93DF93E4E5B2
:10056000F6E0EC018A819B81AC81BD81858F968FFD
:10057000A78FB0A38BE597E094A383A312A211A247
:10058000CF01DF91CF910895FC01818D928D089567
:1005900008958150823108F05AC0E82FF0E0882792
:1005A000EB52FD4F8F4F0C940429F502F902E7023C
:1005B000ED02F1022703FC02020306030C03100301
:1005C00014031A031E032703220328032C0380911C
:1005D00080008F77809380000895809180008F7DC8
:1005E000F9CF80918000877FF5CF84B58F7784BD68
:1005F000089584B58F7DFBCF8091B0008F77809375
:10060000B00008958091B0008F7DF9CF8091900067
:100610008F77809390000895809190008F7DF9CF1F
:1006200080919000877FF5CF8091A0008F77809395
:10063000A00008958091A0008F7DF9CF8091A00047
:10064000877FF5CF809120018F77809320010895D7
:10065000809120018F7DF9CF80912001877FF5CF98
:10066000CF93DF93282F30E0F901E05DFC4F8491B8
:10067000F901E655FC4FD491F901E051FC4FC491CA
:10068000CC23A1F081110E94C902EC2FF0E0EE0F03
:10069000FF1FEA5EFC4FA591B491EC91ED2381E040
:1006A00090E009F480E0DF91CF91089580E090E040
:1006B000FACF1F93CF93DF93282F30E0F901E05D4D
:1006C000FC4F8491F901E655FC4FD491F901E051BA
:1006D000FC4FC491CC23A9F0162F81110E94C902AE
:1006E000EC2FF0E0EE0FFF1FEA58FC4FA591B491FC
:1006F0008FB7F894EC91111108C0D095DE23DC93EC
:100700008FBFDF91CF911F910895DE2BF8CFCF934C
:10071000DF9390E0FC01E655FC4F249180519C4F03
:10072000FC0184918823D1F090E0880F991FFC018F
:10073000E057FC4FA591B491FC01EA58FC4FC591DC
:10074000D491623071F49FB7F8943C91822F8095D8
:1007500083238C93E8812E2B28839FBFDF91CF9139
:1007600008958FB7F894EC912E2B2C938FBFF6CF72
:100770003FB7F8948091D8049091D904A091DA04FD
:10078000B091DB0426B5A89B05C02F3F19F0019658
:10079000A11DB11D3FBFBA2FA92F982F8827BC01DB
:1007A000CD01620F711D811D911D42E0660F771F03
:1007B000881F991F4A95D1F708958F929F92AF9203
:1007C000BF92CF92DF92EF92FF924B015C010E94A9
:1007D000B8036B017C010E94B8036C197D098E0976
:1007E0009F09683E734081059105A8F321E0821AB4
:1007F0009108A108B10888EEC80E83E0D81EE11C5C
:10080000F11C81149104A104B10429F7FF90EF9029
:10081000DF90CF90BF90AF909F908F9008952FB7AB
:10082000F8946091D4047091D5048091D60490918D
:10083000D7042FBF0895EF92FF920F931F93CF938A
:10084000DF9300D01F92CDB7DEB7FA0120E08E0112
:100850000F5F1F4F9E2F9F77EE0FEF2FEE1FFF0BA7
:10086000F195309709F09068D801A20FB11D9C93C3
:100870002F5F309779F730E0FB01E21BF30B8483A5
:10088000FB01E21BF30B3596D801CD01801B910BC8
:10089000821793071CF48D918193F7CF2F5F3F4F01
:1008A00080915806909159068901040F151F621B0B
:1008B000730B6B5F7F4FDC01ED91FC910280F38144
:1008C000E02DA80119957C010E940F046093640635
:1008D00070936506809366069093670681E00E1517
:1008E0001F0509F080E00F900F900F900F90DF919F
:1008F000CF911F910F91FF90EF9008958F929F924B
:10090000AF92BF92CF92DF92EF92FF92CF93DF939D
:10091000EC010E940F044B015C01809158069091FC
:100920005906DC01ED91FC910084F185E02D1995CB
:10093000892BB9F40E940F046B017C01C818D908F7
:10094000EA08FB082091600630916106A8EEB3E04A
:100950000E94F528C616D706E806F906F0F280E0F0
:100960000DC08091580690915906DC01ED91FC91E3
:100970000284F385E02D1995888381E0DF91CF9182
:10098000FF90EF90DF90CF90BF90AF909F908F90AF
:1009900008952F923F924F925F926F927F928F9223
:1009A0009F92AF92BF92CF92DF92EF92FF920F93FE
:1009B0001F93CF93DF9300D000D000D01F92CDB70C
:1009C000DEB71C0180915A0690915B060E947E045E
:1009D00081111CC060E070E0CB012A960FB6F8943C
:1009E000DEBF0FBECDBFDF91CF911F910F91FF9062
:1009F000EF90DF90CF90BF90AF909F908F907F90BF
:100A00006F905F904F903F902F900895E0915A061D
:100A1000F0915B06D0801982EE24E394F12C812CB6
:100A2000912C5401412C512C32014394CE0101965A
:100A30000E947E04882371F287010F5F1F4F898116
:100A4000E0915A06F0915B06EE0DFF1D8083E9816F
:100A5000AE2FAF77B0E0A30192010E94C828860EA6
:100A6000971EA81EB91E37E0440C551C661C771C47
:100A70003A95D1F7E7FD3FC0BD2DB07FBE838FEF24
:100A8000800FF1018083B03309F04CC080915A0689
:100A900090915B06800F911F0E947E04882309F4C9
:100AA00099CF20915A0630915B06C7010296820FBA
:100AB000931F0E947E04882309F48CCF0E5F1F4F82
:100AC000E0915A06F0915B06D1018C91DF01A80FED
:100AD000B11D11968C91119790E0982F882712964E
:100AE0002C91820F911D208121FD0296F2E0E0E021
:100AF00030E020E01DC078010530110509F096CFE7
:100B00008FEF9FEF90937C0680937B068091580631
:100B100090915906DC01ED91FC910488F589E02D56
:100B2000199558CFF0E0E0E030E020E090E080E080
:100B300070E060E0CF2EDE2EE32EF22E28013B0186
:100B40004C185D086E087F084A825B826C827D8249
:100B50002C01712C612C4F82588669867A864A80D6
:100B60005B806C807D804C0C5D1C6E1C7F1CC814EF
:100B7000D904EA04FB0408F046C0CE0101960E94A5
:100B80007E04882309F426CF8091790690917A0615
:100B9000009711F12E812033F9F4D1012C914EEF01
:100BA0005FEF6FEF7FEF421B510961097109440E3E
:100BB000551E661E771E2F81388549855A85241556
:100BC00035054605570540F4DC01ED91FC91019097
:100BD000F081E02D6981199580915C0690915D0608
:100BE0000817190750F48981E0915A06F0915B06C5
:100BF000E00FF11F80830F5F1F4FBFEFCB1ADB0A9F
:100C0000EB0AFB0AACCF8091790690917A06892B8A
:100C100069F480915C0690915D06B0E0A0E08415D7
:100C20009505A605B70510F410E000E0B80190E0C6
:100C300080E0D3CE08950895DC01ED91FC91019000
:100C4000F081E02D1994AF92BF92CF92DF92EF9294
:100C5000FF920F931F93CF93DF936C017B018B0166
:100C6000040F151FEB015E01AE18BF08C017D107B6
:100C700059F06991D601ED91FC910190F081E02D40
:100C8000C6011995892B79F7C501DF91CF911F9185
:100C90000F91FF90EF90DF90CF90BF90AF900895AD
:100CA000FC01538D448D252F30E0842F90E0821B72
:100CB000930B541710F0CF96089501970895FC01F7
:100CC000918D828D981761F0A28DAE0FBF2FB11D4F
:100CD0005D968C91928D9F5F9F73928F90E00895A7
:100CE0008FEF9FEF0895FC01918D828D981731F061
:100CF000828DE80FF11D858D90E008958FEF9FEFB5
:100D00000895FC01918D228D892F90E0805C9F4F8A
:100D1000821B91098F73992708958FE695E00E94B1
:100D2000810621E0892B09F420E0822F0895FC013F
:100D3000A48DA80FB92FB11DA35ABF4F2C91848D3C
:100D400090E001968F739927848FA689B7892C9399
:100D5000A089B1898C91837080648C93938D848DEC
:100D6000981306C00288F389E02D80818F7D8083EF
:100D70000895EF92FF920F931F93CF93DF93EC01AF
:100D800081E0888F9B8D8C8D98131AC0E889F98932
:100D9000808185FF15C09FB7F894EE89FF89608335
:100DA000E889F98980818370806480839FBF81E0B6
:100DB00090E0DF91CF911F910F91FF90EF900895F8
:100DC000F62E0B8D10E00F5F1F4F0F731127E02ED3
:100DD0008C8D8E110CC00FB607FCFACFE889F9890B
:100DE000808185FFF5CFCE010E949706F1CFEB8D74
:100DF000EC0FFD2FF11DE35AFF4FF0829FB7F894DF
:100E00000B8FEA89FB8980818062CFCFCF93DF93FC
:100E1000EC01888D8823B9F0AA89BB89E889F98912
:100E20008C9185FD03C0808186FD0DC00FB607FC47
:100E3000F7CF8C9185FFF2CF808185FFEDCFCE017A
:100E40000E949706E9CFDF91CF91089580E090E06E
:100E5000892B29F00E948D0681110E94000080E0FC
:100E600090E0892B49F080E090E0892B29F00E94E6
:100E7000000081110E94000080E090E0892B49F081
:100E800080E090E0892B29F00E94000081110E94EF
:100E9000000080E090E0892B49F080E090E0892B11
:100EA00029F00E94000081110C9400000895209107
:100EB0006F04260F3327331F21323105ECF42091C4
:100EC0006705FC0190E080E0243069F082E008953D
:100ED000A0916F042191AC01415B5B4FA40FB52F32
:100EE000B11D2C930196861798F380916F04680FBB
:100EF00060936F0480E0089581E008951092670583
:100F000081E0809346051092410561E084E10E94F2
:100F1000590361E085E10E945903E9EBF0E080812B
:100F20008E7F808380818D7F808388E48093B8006A
:100F300085E48093BC000895CF93DF9391E0909374
:100F40004E048823B9F0C091B800D091BA008091C6
:100F5000BC008A7B8093BC0060E084E10E9459035E
:100F600060E085E10E9459030E947E07D093BA0099
:100F7000C093B800DF91CF910895CF92DF92EF92A6
:100F8000FF920F931F93CF93DF93D82FC62F613219
:100F900008F098C00E94B8036B017C01809167053E
:100FA00081116BC081E080936705809346059FEFB8
:100FB00090934505109244059C0F909343058093B0
:100FC000420580914205DD0FD82BD09342058091D8
:100FD0004105813009F078C0109241050E94B803A4
:100FE0006B017C01809142058093BB008091690573
:100FF00090916A05A0916B05B0916C05892B8A2BA5
:101000008B2BA1F00E94B8030091690510916A052D
:1010100020916B0530916C056C197D098E099F0933
:10102000061717072807390708F448C08091BC0045
:1010300083FDD8CF85EC8093BC000E94B8036B0180
:101040007C0180916705813009F440C0809144059E
:101050008C1710F4C0914405E1E2F5E0A7E4B5E097
:1010600080E08C1355C08C2FDF91CF911F910F9191
:10107000FF90EF90DF90CF90089580916905909157
:101080006A05A0916B05B0916C05892B8A2B8B2B7F
:1010900009F484CF0E94B8030091690510916A0594
:1010A00020916B0530916C056C197D098E099F09A3
:1010B000061717072807390708F070CF80916805D1
:1010C0000E949C07C0E0CFCF85EEB5CF8091690527
:1010D00090916A05A0916B05B0916C05892B8A2BC4
:1010E0008B2B09F4AECF0E94B803009169051091D3
:1010F0006A0520916B0530916C056C197D098E098C
:101100009F09061717072807390708F09ACFD6CF87
:1011100091919D938F5FA5CFE09115058091140566
:10112000E81730F4F0E0E95BFA4F808190E0089531
:101130008FEF9FEF089590911505809114052FEF83
:101140003FEF981748F4E92FF0E0E95BFA4F208170
:1011500030E09F5F90931505C901089580911405B3
:1011600090911505891B990B0895CF92DF92EF920C
:10117000FF920F931F93CF93DF937C01CB018A01E2
:1011800020911905222389F0EB016B01C40ED51EB5
:10119000CC15DD0569F06991D701ED91FC910190C5
:1011A000F081E02DC7011995F3CF642F0E945707F6
:1011B000C801DF91CF911F910F91FF90EF90DF90C9
:1011C000CF900895CF93DF931F92CDB7DEB7698399
:1011D000209119052223F9F020911605203258F0AC
:1011E00021E030E0FC013383228390E080E00F9027
:1011F000DF91CF91089580911705E82FF0E0E25D2F
:10120000FB4F998190838F5F80931705809316051C
:1012100081E090E0ECCF61E0CE0101960E9457079B
:10122000F7CFCF92DF92EF92FF920F931F93CF935E
:10123000DF93D091160581E0D13208F09CC0C091B7
:1012400018050E94B8036B017C018091670581112C
:101250006CC082E08093670581E0809346058FEF44
:101260008093450510924405D0934305AEE2B4E067
:10127000E1E2F5E080E0D8138DC010924205809144
:101280004205CC0FC82BC0934205809141058130A7
:1012900009F084C0109241050E94B8036B017C01E3
:1012A000809142058093BB008091690590916A0509
:1012B000A0916B05B0916C05892B8A2B8B2BA1F02B
:1012C0000E94B8030091690510916A0520916B0591
:1012D00030916C056C197D098E099F090617170757
:1012E0002807390708F442C08091BC0083FDD8CF9D
:1012F00085EC8093BC000E94B8036B017C01809157
:101300006705823009F44CC0809145058F3F09F490
:1013100069C080914505803209F466C08091450519
:10132000803309F463C084E026C080916905909100
:101330006A05A0916B05B0916C05892B8A2B8B2BCC
:1013400009F483CF0E94B8030091690510916A05E2
:1013500020916B0530916C056C197D098E099F09F0
:10136000061717072807390708F06FCF809168051F
:101370000E949C0785E010921705109216051092A6
:101380001905DF91CF911F910F91FF90EF90DF90A2
:10139000CF9008959D9191938F5F6DCF85EEA9CFEA
:1013A0008091690590916A05A0916B05B0916C05DB
:1013B000892B8A2B8B2B09F4A2CF0E94B8030091B2
:1013C000690510916A0520916B0530916C056C19C7
:1013D0007D098E099F09061717072807390708F0A6
:1013E0008ECFC4CF80E0C7CF82E0C5CF83E0C3CF2C
:1013F000FC0120812EBD9B012150310941F051811A
:101400000DB407FEFDCF4EB55EBD4193F5CF6150E3
:101410007109860F971F0DB407FEFDCF2EB5FC0195
:1014200020830895E0911B05F0911C058081909127
:101430001A05892B80830895E0911B05F0911C0506
:10144000908180911A0580958923808308958EBDAF
:1014500000000DB407FEFDCF8EB50895AF92BF9288
:10146000CF92DF92EF92FF920F931F93CF93DF9370
:1014700000D000D01F921F92CDB7DEB78C017B0148
:101480006A0180911E058333E1F45801A40EB51E54
:10149000A016B10609F46FC00E941C0A80EF0E94DA
:1014A000270A812F0E94270A802F0E94270A0F5F98
:1014B0001F4FF70181917F010E94270A0E94120AA3
:1014C000E7CF5B01A40EB51E8433C1F40E941C0A51
:1014D00019830A838D2D80688B83CC8264E070E051
:1014E000CE0101960E94F809AE14BF0409F441C070
:1014F000F70181917F010E94270AF6CF0E941C0A02
:101500000F3F110509F028F419820A8384E08B83C8
:101510000CC017FD17C019820A8333E01695079592
:101520003A95E1F7007E0C600B8386E0C816D10483
:10153000A0F5F701DE011496EA15FB0599F08191FB
:101540008D93FACFC80126E0969587952A95E1F705
:10155000807E19830A830115104C10F48461D7CF63
:101560008C61D5CFB6016D5F7F4FCE0101960E9491
:10157000F8090E94120AC60128960FB6F894DEBF39
:101580000FBECDBFDF91CF911F910F91FF90EF90D4
:10159000DF90CF90BF90AF90089563E070E0CE01F0
:1015A00001960E94F809F70181917F010E94270AA4
:1015B000AE14BF04C1F7DDCFCF93DF931F92CDB739
:1015C000DEB7898341E050E0BE016F5F7F4F90E05E
:1015D00080E00E942E0A0F90DF91CF91089590E055
:1015E00020911E05233339F40C96982F990F990FEB
:1015F000990F80E008954896F8CFDA01E0911F0531
:10160000F0E0FE2FEE27E60FF71F90E0982F8827D7
:10161000A901BD018E0F9F1F0C942E0ACF93DF935B
:101620001F921F92CDB7DEB779836A8322E030E044
:10163000AE014F5F5F4F60E170E00E94FD0A0F90C6
:101640000F90DF91CF910895CF93DF931F921F9258
:10165000CDB7DEB779836A8322E030E0AE014F5F19
:101660005F4F64E070E00E94FD0A0F900F90DF91E1
:10167000CF910895CF93DF931F92CDB7DEB720911E
:101680001F0530E0322F2227260F371F90E0982FBA
:101690008827498341E050E0BE016F5F7F4F820F92
:1016A000931F0E942E0A0F90DF91CF910895CF9340
:1016B000DF931F92CDB7DEB76983DC01ED91FC911A
:1016C0000280F381E02D41E050E0BE016F5F7F4F6B
:1016D00019950F90DF91CF910895FC019485FB013E
:1016E0008485981303C081E0983008F080E0089565
:1016F000CF93DF931F92CDB7DEB76983DC01ED9105
:10170000FC910280F381E02D41E050E0BE016F5F6B
:101710007F4F19950F90DF91CF9108950895FF9213
:101720000F931F93CF93DF93EB01FC01178A168A67
:101730002A81211109C02B81211106C02C81211180
:1017400003C02D81222301F141155105E9F08A01E1
:10175000FC01F08C80E591E00E94AA02AE014E5F90
:101760005F4F24E030E06CE070E08F2D0E94FD0AB6
:10177000B8018F2D0E940E0B81E090E0DF91CF9198
:101780001F910F91FF90089580E0F7CFFC018485B1
:1017900095850895FC018489958908952FEA32E0A2
:1017A000FC0131832083FB0140895189628973895F
:1017B000FC0142835383648375830895DC01ED91BA
:1017C000FC91048CF58DE02D1994EF92FF920F930C
:1017D0001F93CF93DF93EC018B017A010E940F04DA
:1017E000688B798B8A8B9B8B8C819D81DC01ED9141
:1017F000FC910280F381E02DA701B801DF91CF9128
:101800001F910F91FF90EF9019941F93CF93DF9347
:10181000EC01162F0E940F04688B798B8A8B9B8BAF
:101820008C819D81DC01ED91FC910190F081E02D96
:10183000612FDF91CF911F911994089590E080E07E
:101840000895FC01768765870895DC01ED91FC9190
:10185000068CF78DE02D199591E089270895862F44
:10186000089581E08627089521E0FC018485883071
:1018700008F020E0822F08958F929F92AF92BF923E
:10188000CF92DF92EF92FF92CF93A0916D05B0912E
:101890006E0591E09093190590E4909318051092CD
:1018A000170510921605ED91FC9111970190F081AA
:1018B000E02D682FCD01199580916D0590916E05F1
:1018C0000E941109CAE06AE070E080E090E00E94A6
:1018D000DD0363E080E40E94BD071092150580934C
:1018E0001405C15061F486EE93E0CF91FF90EF9024
:1018F000DF90CF90BF90AF909F908F9008958330EE
:1019000011F780916D0590916E05DC01ED91FC91D0
:101910000284F385E02D1995F82E80916D05909144
:101920006E05DC01ED91FC910284F385E02D1995A3
:10193000C82F80916D0590916E05DC01ED91FC91B1
:101940000284F385E02D199520E03F2D2C2BA90171
:1019500070E060E0762F652F542F4427482B87E1F5
:1019600090E0C12CE0E8DE2EE8E9EE2EF12C4A01F1
:101970005B01082E04C0B694A794979487940A94A8
:10198000D2F780FE04C04C255D256E257F25F69498
:10199000E794D794C79401978730910541F7C9011F
:1019A0008C7F442309F4A1CF87EE93E09ECFCF92A2
:1019B000DF92EF92FF920F931F93CF93DF937C01FF
:1019C000EB0160915C0670915D06CE010E946C2671
:1019D0008C010E947202882309F440C0C0905C060A
:1019E000D0905D06B601C7010E946C269801295F60
:1019F0003F4F820F931FC816D90680F160915A0697
:101A000070915B0645E050E0C7010E9450027E01E4
:101A1000E00EF11EFE01EC01CE1BDF0BAE014E0FFE
:101A20005F1F60915A0670915B06EE15FF0531F05D
:101A30002191640F751FDB012C93F0CF0550110924
:101A4000A801480F591F80E3DF91CF911F910F919B
:101A5000FF90EF90DF90CF900C941B0480E0DF911B
:101A6000CF911F910F91FF90EF90DF90CF9008954D
:101A7000FB0101900020E9F73197AF01461B570B9E
:101A8000DC01ED91FC910280F381E02D19948F929D
:101A90009F92AF92BF92EF92FF920F931F93CF93BB
:101AA000DF93CDB7DEB7A1970FB6F894DEBF0FBEB8
:101AB000CDBF7C01FA01CB0119A2223008F42AE043
:101AC0008E010F5D1F4F822E912CB12CA12CBF01D6
:101AD000A50194010E94D328F901CA016A300CF5CE
:101AE000605DD8016E938D01232B242B252B79F774
:101AF00090E080E0109721F0BD01C7010E94380DF1
:101B0000A1960FB6F894DEBF0FBECDBFDF91CF9187
:101B10001F910F91FF90EF90BF90AF909F908F908B
:101B20000895695CDECF8F929F92AF92BF92CF9261
:101B3000DF92EF92FF920F931F93CF93DF937C017D
:101B40008B016C0182E0C80ED11C4701E5E08E0ECE
:101B5000911CD0E0C0E0F60141916F0150E070E0CF
:101B600060E02AE0C8010E94470D5C016EE2C801F6
:101B70000E941C068A0D9B1DC80FD91FC814D904CA
:101B800051F7F701458150E070E060E02AE0C801BC
:101B90000E94470D8C0F9D1FDF91CF911F910F91D8
:101BA000FF90EF90DF90CF90BF90AF909F908F907D
:101BB00008950F931F93CF93DF93EC010E94380D8C
:101BC0008C0161EB72E0CE010E94380D800F911FF5
:101BD000DF91CF911F910F9108956115710511F05B
:101BE0000C94380D90E080E00895CF93DF93EB01E3
:101BF000BC018FE695E00E94ED0D64EB72E0CD2B09
:101C000011F468EB72E08FE695E0DF91CF910C94D0
:101C1000D90DEF92FF920F931F93CF93DF93EC01B7
:101C20007B018A016BEB72E08FE695E00E94ED0D7F
:101C3000BE018FE695E00E94ED0D6DEC72E08FE63F
:101C400095E00E94ED0DE7010E0D1F1DC017D10795
:101C500031F069918FE695E00E941C06F7CF61EBA9
:101C600072E08FE695E0DF91CF911F910F91FF9089
:101C7000EF900C94380D85ED8093BC008091690540
:101C800090916A05A0916B05B0916C050796A11D16
:101C9000B11D23E0B695A795979587952A95D1F71D
:101CA0002091BC0024FD03C0109267050895409167
:101CB000690550916A0560916B0570916C05452B23
:101CC000462B472B69F30097A105B10541F025E3A9
:101CD0002A95F1F700000197A109B109E1CF8091A0
:101CE00068050C949C07AF92BF92CF92DF92EF925F
:101CF000FF920F931F93CF93DF9300D01F92CDB726
:101D0000DEB78C016B017A0180911E058333E9F403
:101D10005B016801C40ED51EC016D106A9F10E9450
:101D20001C0A8FE00E94270A812F0E94270A802F19
:101D30000E94270A0F5F1F4F80E00E94270AF501CB
:101D400081935F010E94120AE7CF843369F50E94F4
:101D50001C0A19830A838F2D8F778B83EC8264E0B2
:101D600070E0CE0101960E94F809A70170E060E0E2
:101D7000C6010E94862CE114F10421F0B701C601CE
:101D80000E94F8090E94120AC7010F900F900F904D
:101D90000F90DF91CF911F910F91FF90EF90DF9007
:101DA000CF90BF90AF9008950E941C0A0F3F11057D
:101DB00009F030F419820A831B8263E070E0D1CF0E
:101DC00017FD0BC019820A8333E0169507953A95E3
:101DD000E1F7007E08600B83F0CFC80126E09695FE
:101DE00087952A95E1F7807E19830A830115104CA7
:101DF00018F480618B83E1CF8861FCCFCF93DF93B0
:101E00001F92CDB7DEB720911F0530E0322F222779
:101E1000260F371F90E0982F882741E050E0BE0141
:101E20006F5F7F4F820F931F0E94730E89810F9007
:101E3000DF91CF910895CF93C82F462F61E070E0D6
:101E40000E943A0B61E070E08C2F0E94FE0E81111F
:101E5000F9CFCF910895CF93C82F80E591E00E94EC
:101E6000AA0268E070E08C2FCF910C941B0FCF93E7
:101E7000C82F80E591E00E94AA0260E170E08C2FFB
:101E8000CF910C941B0FCF93DF93EC01888D88309A
:101E900020F40E94370F88E0888FDF91CF9108955A
:101EA000CF93C82F80E591E00E94AA0263E070E022
:101EB0008C2FCF910C94FE0ECF93DF93EC018C8589
:101EC0008830D0F40E94500F843189F0882379F053
:101ED000883169F021E08C3159F4E881F98100847E
:101EE000F185E02DCE01199521E0892B09F420E040
:101EF000822FDF91CF91089580E0FBCFCF92DF92C8
:101F0000EF92FF92CF93DF93EC018C85883068F4D9
:101F10000E942B0F0E940F046B017C018C850E9494
:101F2000500F811109C088E08C87DF91CF91FF901D
:101F3000EF90DF90CF90089561E070E080E090E056
:101F40000E94DD030E940F04AB01BC014C195D0926
:101F50006E097F098D859E85B0E0A0E0481759077E
:101F60006A077B07D8F28C850E94370FDCCFCF93AE
:101F7000FC01C08D80E591E00E94AA0260E270E061
:101F80008C2F0E941B0F62E070E08C2F0E94FE0ECF
:101F900084FD16C062E070E08C2F0E94FE0E83FF6D
:101FA0000AC048E162E070E08C2F0E943A0B80E0AA
:101FB00090E0CF91089580E591E00E94AA02E3CFDE
:101FC00040E162E070E08C2F0E943A0B81E0F0CF9C
:101FD000CF93DF931F92CDB7DEB741E050E0BE0153
:101FE0006F5F7F4F90E080E00E94730E89810F90B9
:101FF000DF91CF910895CF93DF93C4E1D0E00E94A9
:10200000E80F882361F061E070E080E090E00E94DA
:10201000DD032197A1F780E0DF91CF91089581E062
:10202000FBCFCF92DF92EF92FF920F931F93CF934C
:10203000DF93CDB7DEB7C454D1090FB6F894DEBF35
:102040000FBECDBFFC0182819381A481B58123960F
:102050008CAF9DAFAEAFBFAF239721E023962FAFDC
:10206000239723964CAD5DAD6EAD7FAD23974BAB03
:102070005CAB6DAB7EAB89AF9AAFABAFBCAF8DA79E
:102080009EA7AFA7B8AB28AB4DA55EA56FA578A955
:102090004FA358A769A77AA72EAB4BA95CA96DA936
:1020A0007EA949A35AA36BA37CA38B8F9C8FAD8F72
:1020B000BE8F4FEA52E05C8B4B8B3FEF3D8B3E8BEC
:1020C0003F8B188E5E874D872AA7CFA0D8A4E9A49E
:1020D000FAA4CF86D88AE98AFA8A2CA309A11AA180
:1020E0002BA13CA109871A872B873C875A834983F8
:1020F0008B839C83AD83BE838091200581119DC01D
:1021000060E372E080E090E00E94DD031FB7F89486
:1021100080911D05811127C0E5E2F4E08491EFED87
:10212000F3E09491E82FF0E0EE0FFF1FE057FC4F33
:10213000A591B491EC91E92321F461E085E30E943B
:10214000590361E085E30E9487038CB580618CBDF3
:102150008CB580648CBD61E084E30E94870361E0FC
:1021600083E30E94870380911D058F5F80931D0587
:102170001FBFEAEFF3E0E491F0E0EE0FFF1FEA5833
:10218000FC4F8591949190931C0580931B05E4EB83
:10219000F3E0E491E0931A0561E08AE00E9487038E
:1021A0000E94120A80E591E00E94AA0284E38093D3
:1021B0001E0580E80E94DC0A0E94FB0F882309F4B8
:1021C00072C088E00E94DC0A0E94E80F883009F0A3
:1021D0006AC080E10E94DC0A0E94E80F803109F0A9
:1021E00062C080E00E94DC0A0E94E80F182F811173
:1021F0005AC041E050E0BE016D5B7F4F8FE190E03F
:102200000E94730E24968FAD2497833009F04BC043
:1022100080E480931F0542E06EE170E0812F0E9410
:102220003A0B42E06FE170E0812F0E943A0B1F5F92
:10223000183089F781E08093200580E591E00E94C5
:10224000AA0246E050E06AE072E089E090E00E9475
:102250002E0A44E050E0BE016D5F7F4F8FE090E0BA
:102260000E942E0A44E050E0BE01615F7F4F81E092
:1022700090E00E942E0A44E050E0BE016B5E7F4F6A
:1022800085E090E00E942E0A81E08C8789859A85FE
:10229000AB85BC858093440690934506A093460683
:1022A000B09347066FC087E380931E0580E80E94C5
:1022B000DC0A0E94FB0F882339F188E00E94DC0AC7
:1022C0000E94E80F883001F580E10E94DC0A0E943C
:1022D000E80F182F8031C1F480E00E94DC0A0E94D0
:1022E000E80F811111C041E050E0BE016D5B7F4FEE
:1022F00089E390E00E94730E24968FAD249784307A
:1023000019F410931F0596CF83E380931E0580E890
:102310000E94DC0A0E94FB0F882391F180E10E9459
:10232000DC0A0E94E80F803159F582E10E94DC0A44
:102330000E94E80F823121F580E00E94DC0A0E94B1
:10234000E80F81111DC084E080931F0515E52596D7
:102350001FAF259741E050E0BE016C5B7F4F8BE1E2
:1023600090E00E942E0A24961FAF249741E050E08F
:10237000BE016D5B7F4F8AE190E00E942E0A5ACF2A
:1023800010921E05CC5BDF4F0FB6F894DEBF0FBE78
:10239000CDBFDF91CF911F910F91FF90EF90DF9014
:1023A000CF9008951F93CF93DF931F92CDB7DEB7E1
:1023B000182F80E591E00E94AA02812F0E94EF0A67
:1023C00027E0129FF0011124E452FB4F2281338158
:1023D000377041E050E0BE016F5F7F4F820F931F67
:1023E0000E94730E89810F90DF91CF911F91089504
:1023F000FC01808D883040F4218D328D232B21F01B
:102400000E94D21190E008958FEF9FEF0895CF932F
:10241000DF93FC012485283028F08FEF9FEFDF91B8
:10242000CF910895EC010190F081E02D0084F185B9
:10243000E02D1995892B89F38C850E94D21190E0AB
:10244000EECFDA01E0911F05F0E0FE2FEE27E60F58
:10245000F71F90E0982F8827A901BD018E0F9F1FBD
:102460000C94730E8F929F92AF92BF92CF92DF9295
:10247000EF92FF920F931F93CF93DF93CDB7DEB709
:1024800060970FB6F894DEBF0FBECDBF7C01909170
:102490001E05911115C018E0812F60960FB6F894B3
:1024A000DEBF0FBECDBFDF91CF911F910F91FF9087
:1024B000EF90DF90CF90BF90AF909F908F90089556
:1024C00008E0933309F404E06B0180E591E00E9499
:1024D000AA029E012F5F3F4F5901490110E063E0BE
:1024E00070E0812F0E94FE0EF40181934F0188233A
:1024F000C1F01F5F0113F3CF00E0F50181915F018F
:102500008D3149F0883139F08A51823020F00F5FE7
:102510001013F3CFC0CF60E170E0802F0E941B0F3B
:10252000102FA12EB12C83EE93E00197F1F742E832
:1025300070E060E0812F0E943A0B4FEF62E070E0A4
:10254000812F0E943A0BB601C114D10491F48091FD
:1025500008029091090201968115F0EC9F0708F49A
:102560005CC0909309028093080260910802709108
:102570000902812F0E94240B86E0E6E1F2E0DE01F1
:10258000199601900D928A95E1F7F70183818F7773
:102590008C8784818D8785818E87A7014E5F5F4FF1
:1025A00024E030E06CE070E0812F0E94FD0AB6016B
:1025B000812F0E940E0B26E030E0AE01475F5F4F97
:1025C00066E070E0812F0E94FD0A61E070E0812FDB
:1025D0000E941B0F27E02A9DC0012B9D900D112406
:1025E0009C0124523B4F7901F9011182108222E0B3
:1025F00030E0AE01415F5F4F68E270E0812F0E94E2
:1026000021128F859889982789279827F701938326
:1026100082831682158214823FCF80E090ECA1CF96
:10262000CF92DF92EF92FF920F931F93CF93DF939E
:1026300000D000D0CDB7DEB78C016B017A01FC0170
:10264000808D883010F40E94370F8FEA92E09A83D1
:102650008983F60182819381A481B5818B839C83D8
:10266000AD83BE83B701CE0101960E943212F801FC
:10267000808F8830A0F4F586E486128E118E81E07A
:1026800026960FB6F894DEBF0FBECDBFDF91CF9177
:102690001F910F91FF90EF90DF90CF90089580E011
:1026A000EFCF7F928F929F92AF92BF92CF92DF92A5
:1026B000EF92FF920F931F93CF93DF931F921F927E
:1026C000CDB7DEB7782E8B014A01590122E030E008
:1026D000AE014F5F5F4F64E270E00E942112E9801B
:1026E000FA80FE24EF24FE24E00EF11E97013770DD
:1026F00040911E05072D10E0433309F042C0085FEA
:102700001F4F102F0027110F110F110FC901800F3C
:10271000911F4733C9F1A9014A0D5B1D4130584053
:1027200098F160E078E06B01C21AD30AA601B40107
:102730000E942E0AA5014C195D09B4016C0D7D1D86
:10274000C8010E942E0AEA0CFB1CF982EA8222E0F0
:1027500030E0AE014F5F5F4F64E270E0872D0E9472
:10276000FD0A0F900F90DF91CF911F910F91FF9075
:10277000EF90DF90CF90BF90AF909F908F907F9021
:102780000895005F1F4FBDCFA501B401DACFEF92CE
:10279000FF921F93CF93DF931F921F92CDB7DEB7A7
:1027A000182F22E030E0AE014F5F5F4F60E270E033
:1027B0000E942112E980FA80FE24EF24FE2422E008
:1027C00030E0AE014F5F5F4F60E270E0812F0E940A
:1027D000211289819A81982789279827E816F90676
:1027E00089F487E0189FF0011124E452FB4FF58231
:1027F000E482C7010F900F90DF91CF911F91FF905E
:10280000EF9008957C01DBCF1F93CF93DF93182FB8
:1028100080E591E00E94AA02812F0E94C713EC017B
:1028200063E070E0812F0E94FE0E873121F08C3131
:1028300011F0D0E0C0E0CE01DF91CF911F9108955B
:10284000CF93DF93EC018C85883060F40E94500FA9
:10285000873111F08C3131F48C850E94041481157C
:10286000984088F3DF91CF910895FC0184858830EA
:1028700010F40C94041490E080E008959F92AF92BD
:10288000BF92CF92DF92EF92FF920F931F93CF935D
:10289000DF938C015B01942EE52EFC01C688D7885E
:1028A000F08C80E591E00E94AA028F2D0E94C71350
:1028B000C92DDE2D8C179D0708F4EC019E01A501A2
:1028C000B6018F2D0E945113F801868997898C0FCC
:1028D0009D1F978B868BCE01DF91CF911F910F911A
:1028E000FF90EF90DF90CF90BF90AF909F900895B2
:1028F0008F929F92AF92BF92CF92DF92EF92FF9210
:102900000F931F93CF936C015B018A01FC01C48577
:10291000C830F0F57A014130584018F0E12C88E0D9
:10292000F82E80E591E00E94AA028C2F0E94C71326
:102930004C0163E070E08C2F0E94FE0E873111F095
:102940008C3149F58E149F0460F380E591E00E947C
:10295000AA029701A50170E060E08C2F0E9451133C
:1029600060E270E08C2F0E941B0F62E070E08C2F01
:102970000E94FE0E84FD17C063E070E08C2F0E9461
:10298000FE0E81110BC081E090E0F60193838283FB
:1029900010E000E010C0F12CE12CD7CF80E591E0F1
:1029A0000E94AA02E2CF40E162E070E08C2F0E9418
:1029B0003A0BEF2841F3C801CF911F910F91FF907F
:1029C000EF90DF90CF90BF90AF909F908F90089541
:1029D000FF920F931F93CF93DF931F921F92CDB758
:1029E000DEB7F82E22E030E0AE014F5F5F4F66E2C7
:1029F00070E00E94211209811A81102701271027F7
:102A000022E030E0AE014F5F5F4F66E270E08F2D55
:102A10000E94211289819A8198278927982708176F
:102A2000190749F4C8010F900F90DF91CF911F91C2
:102A30000F91FF9008958C01E3CF1F93CF93DF9305
:102A4000182F87E0189FE0011124C452DB4F8881C2
:102A50009981009761F480E591E00E94AA02812F9C
:102A60000E94E8142E81821B910999838883DF914B
:102A7000CF911F910895FC018485883010F40C9447
:102A80001D1590E080E008954F925F927F928F92A3
:102A90009F92AF92BF92CF92DF92EF92FF920F93ED
:102AA0001F93CF93DF931F921F92CDB7DEB7782E7F
:102AB0006B014A01A82EB12C27E0829FC00111248E
:102AC000FC01E452FB4F7F010081118180E591E020
:102AD0000E94AA020815190554F4872D0E94E814D3
:102AE000F70126818C01021B110911830083011556
:102AF000110529F563E070E0872D0E94FE0E8431F8
:102B000059F0882349F001E010E08C3111F410E015
:102B100000E0119501951109C8010F900F90DF9108
:102B2000CF911F910F91FF90EF90DF90CF90BF90CA
:102B3000AF909F908F907F905F904F9008958016F8
:102B400091060CF4840187E08A9DF0018B9DF00DC5
:102B50001124E452FB4FE280F380C114D10451F1FF
:102B60002701F7E05F22872D0E94EF0A840D951D53
:102B700020911E05273309F453C09801240D351DFB
:102B80002130384008F44CC020E038E04901841876
:102B90009508A401B6010E94730E2601480C591C29
:102BA0006801C818D908872D0E94EF0AA601B20152
:102BB0000E94730EE00EF11E87E08A9DF0018B9D4E
:102BC000F00D1124E452FB4FF382E2822081318127
:102BD000201B310B318320838681800F912F911D23
:102BE0008A3F910510F4232BF1F487E08A9DF001D0
:102BF0008B9DF00D1124E452FB4F1682F982EA827C
:102C000022E030E0AE014F5F5F4F68E270E0872D59
:102C10000E94FD0A60E470E0872D0E941B0F7CCFAC
:102C2000A801B601C5CF868377CFCF93DF93FC0190
:102C3000218D328D2115310529F48FEF9FEFDF9122
:102C4000CF910895EC01808D4217530708F0A90138
:102C50000E9444151816190684F7298D3A8D281BF1
:102C6000390B3A8F298FEBCF0F931F93CF93DF93BD
:102C70001F92CDB7DEB7FC01218D328D232B41F49D
:102C80008FEF9FEF0F90DF91CF911F910F910895DC
:102C90008C0141E050E0BE016F5F7F4FFC01808DF1
:102CA0000E944415181619065CF7F801818D928D63
:102CB0000197928F818F898190E0E4CFCF93DF934A
:102CC0001F92CDB7DEB741E050E0BE016F5F7F4F8E
:102CD000FC0184850E9444151816190634F4898174
:102CE00090E00F90DF91CF9108958FEF9FEFF9CF94
:102CF000FC018485883010F40C94441590E080E049
:102D000008958F929F92AF92BF92CF92DF92EF92EF
:102D1000FF920F931F93CF93DF9300D000D000D08A
:102D20001F92CDB7DEB790911E05911115C018E026
:102D3000812F2A960FB6F894DEBF0FBECDBFDF916C
:102D4000CF911F910F91FF90EF90DF90CF90BF90A8
:102D5000AF909F908F90089528E0F22E933311F456
:102D600094E0F92E6B01082F80E591E00E94AA0201
:102D70009E012F5F3F4F5901490110E063E070E071
:102D8000812F0E94FE0EF40181934F018823C1F030
:102D90001F5FF112F3CFF12CF50191915F019D318D
:102DA00049F0983139F09A51923020F0F3941F1184
:102DB000F3CFBDCF60E170E08F2D0E941B0F1F2D60
:102DC000E12EF12C83EE93E00197F1F7402F70E0B4
:102DD00060E0812F0E943A0B4FEF62E070E0812F9C
:102DE0000E943A0BB601CD2889F480910802909197
:102DF000090201968115F0EC9F0798F19093090262
:102E0000809308026091080270910902812F0E944C
:102E1000240B61E070E0812F0E941B0F27E02E9DA4
:102E2000C0012F9D900D11249C0124523B4F79012C
:102E3000F9011182108222E030E0AE01475F5F4F5E
:102E400068E270E0812F0E94211289859A85982777
:102E500089279827F701938382831682158214822B
:102E600067CF80E090ECCACF0F931F93CF93DF938F
:102E7000EC018B01888D883010F40E94370FB80167
:102E800082E00E948116888F883050F41D870C875D
:102E90001A8E198E81E0DF91CF911F910F910895C5
:102EA00080E0F9CFCF92DF92EF92FF921F93CF9302
:102EB000DF93EC017B016A018C85883048F40E9425
:102EC000500F882319F08C850E942B0F88E08C8787
:102ED000F70182819381A481B5810097A105B10595
:102EE00051F490E080E0DF91CF911F91FF90EF903F
:102EF000DF90CF9008958F3F9F4FAF4FBF4F89F323
:102F000070E060E081E20E948116182F8C87883083
:102F100040F780E591E00E94AA02A7014E5F5F4F53
:102F200024E030E06CE070E0812F0E94FD0AB601E1
:102F3000812F0E940E0B64E070E0812F0E941B0F16
:102F40000E940F046B017C018C850E94500F873119
:102F500011F18C3101F1882321F20E940F04AB01A1
:102F6000BC014C195D096E097F098D859E85B0E015
:102F7000A0E084179507A607B70738F061E070E076
:102F800080E090E00E94DD03DFCF8C850E94370F48
:102F900088E08C87A6CF81E090E0A5CF0F931F93A8
:102FA000CF93DF931F921F92CDB7DEB7FC0124852C
:102FB0002830E0F48C0180E591E00E94AA0222E032
:102FC00030E0AE014F5F5F4F60E170E0F801848553
:102FD0000E94211289819A819827892798270F902A
:102FE0000F90DF91CF911F910F91089590E080E0B5
:102FF000F6CF0F931F93CF93DF931F921F92CDB7FE
:10300000DEB7FC0124852830E0F48C0180E591E0F6
:103010000E94AA0222E030E0AE014F5F5F4F64E001
:1030200070E0F80184850E94211289819A81982795
:10303000892798270F900F90DF91CF911F910F91C3
:10304000089590E080E0F6CF0F931F93CF93DF9326
:1030500000D000D01F921F92CDB7DEB78C01D801EF
:1030600059964D915C915A974115510551F0ED914A
:10307000FC91048CF58DE02D70E060E0C80119959D
:10308000EECFF801808D0E941D15892BB1F148E02B
:1030900050E0BE016F5F7F4FD80158968C910E941F
:1030A000441518161906F4F4D801509684E0FE0170
:1030B000319601900D928A95E1F78D8190E0982FDD
:1030C00088272E81820F911DF801958B848B8F812B
:1030D000282F30E0322F22278885820F932F911DD1
:1030E000928F818F28960FB6F894DEBF0FBECDBFAA
:1030F000DF91CF911F910F91089590E080E0F2CF82
:103100004F925F926F927F928F929F92AF92BF92F7
:10311000CF92DF92EF92FF920F931F93CF93DF93A3
:10312000CDB7DEB763970FB6F894DEBF0FBECDBF45
:103130007C016B013A01FB0120E090E080E06AE055
:103140003191332309F461C040ED430F4A3008F058
:103150004DC0689FA001699F500D1124CA01C097FE
:10316000830F911D37FD9A958F3F910549F340F3E9
:10317000F70142815381648175818091200690918D
:103180002106A0912206B0912306481759076A0725
:103190007B0709F40DC28701085F1F4F0E940F04CF
:1031A0006F7077277C5FC8010E943417813009F067
:1031B00004C28FEA92E09A838983F7018281938126
:1031C000A481B5818B839C83AD83BE8345E350E0AE
:1031D000BE016F5F7F4FC8010E948F0B892BA9F53D
:1031E000D12CC12CC8010E94430F17C03E3209F0F8
:1031F000BFCF233009F4BCCFD301A20FB11D12966B
:103200008C932F5F90E080E09BCF233009F0B0CF0C
:10321000F3018583CC24C394D12CC60163960FB6E9
:10322000F894DEBF0FBECDBFDF91CF911F910F91FC
:10323000FF90EF90DF90CF90BF90AF909F908F90D6
:103240007F906F905F904F9008950E940F04F70158
:103250007783668342E050E0B7016A5F7F4FC80121
:103260000E943E1481E090E09A83898342E050E01E
:10327000BE016F5F7F4FC8010E943E1480E091E065
:103280009A83898342E050E0BE016F5F7F4FC8019F
:103290000E943E141A82198242E050E0BE016F5F24
:1032A0007F4FC8010E943E1442E050E0BE016F5FB4
:1032B0007F4FC8010E943E1442E050E0BE016F5FA4
:1032C0007F4FC8010E943E145601F6018081882379
:1032D00001F16501F60181912F01882311F08E32F1
:1032E000B1F446018A189B081814190474F48D86E9
:1032F00041E050E0BE01635F7F4FC8010E943E1471
:10330000A401B501C8010E943E145201DECF620142
:10331000E1CF1D8641E050E0BE01635F7F4FC801F1
:103320000E943E14C12CDD24D394DA82C98242E08B
:1033300050E0BE016F5F7F4FC8010E943E14DA82E9
:10334000C98242E050E0BE016F5F7F4FC8010E941A
:103350003E14C8010E94B70F892B09F441CFF3E056
:10336000AF2EB12C230122E0420E511CD4C0F70134
:103370004281538164817581808D918DA28DB38D41
:10338000481759076A077B0709F008C1848D958D96
:10339000C59709F003C181A192A15DEFC52EDD247F
:1033A000DA940C970CF4ADC04CE050E0BE016F5FB6
:1033B0007F4FC8010E9415168B819C819827892711
:1033C00098279A8B898BF7014681578129813A8109
:1033D0004217530709F0E7C097FFE5C08F7092705E
:1033E0003BEFC32EDD24DA94892B09F08AC06F806D
:1033F00078847624672476242AEFC22EDD24DA949A
:103400006114710409F47DC0D12CC12C8D819E8181
:10341000982789279827C816D906F8F441E050E084
:10342000BE01635F7F4FC8010E9415164D8544237E
:1034300031F050E070E060E0C8010E9415168D8503
:103440008111ECCF44E050E070E060E0C8010E94E0
:103450001516FFEFCF1ADF0AD9CF912C812C41E04E
:1034600050E0BE016D5E7F4FC8010E9415164B896A
:10347000842F807C09F06CC0442331F050E070E070
:1034800060E0C8010E9415168B898111E8CF42E0E7
:1034900050E0BE01615F7F4FC8010E94151642E0F7
:1034A00050E0BE01635F7F4FC8010E94151644E0E3
:1034B00050E070E060E0C8010E94151642E050E064
:1034C000BE016F5E7F4FC8010E9415168F859889D7
:1034D00049895A898115914009F043C0CD84DE8421
:1034E000DC24CD24DC2481E0C816D104D1F54115BB
:1034F000544009F04AC044E050E0B201C8010E94C3
:10350000151621E0A21AB10809F46CCEFFEFCF1610
:10351000DF0609F067CE0E940F043B014C01C80191
:103520000E942418181619060CF421CF0E940F04CB
:1035300066197709880999096938734181059105E8
:1035400048F562E370E080E090E00E94DD03E7CFA1
:1035500041E050E070E060E0C8010E9415161B8A4F
:1035600093CF54274527542770E060E0C8010E949C
:103570001516FFEF8F1A9F0A6814790409F06FCFB0
:1035800096EFC92EDD24DA94BCCFE7EFCE2EDD24F2
:10359000DA94B7CFCC24CA94DC2CB3CF6EEFC62E0E
:1035A000DD24DA94AECF4CEFC42EDD24DA94A9CF1B
:1035B0008EEFC82EDD24DA9430CED12CC12C2DCE46
:1035C000CF92DF92EF92FF920F931F93CF93DF93EF
:1035D000CDB7DEB7AF970FB6F894DEBF0FBECDBF45
:1035E0007C016A010FEA12E01A8309831C861B869C
:1035F00088EE93E0A0E0B0E08D879E87AF87B88B20
:1036000087E292E09A878987188F0F8B198E1A8E1E
:103610001B8E1C8E88E089A31BA70AA71CA61DA6CB
:103620001EA61FA68091440690914506A0914606CD
:10363000B09147068EA39FA3A8A7B9A78B839C83AD
:10364000AD83BE8318861F82AE01465D5F4FCE01FB
:1036500001960E94801881309105B1F4D701ED9157
:10366000FC910488F589E02D1DA30CA38CA59DA5D4
:10367000AEA5BFA58EA39FA3A8A7B9A7A601BE010B
:103680006C5D7F4FC7011995AF960FB6F894DEBFFA
:103690000FBECDBFDF91CF911F910F91FF90EF90A3
:1036A000DF90CF900895CF92DF92EF92FF920F9329
:1036B0001F93CF93DF93CDB7DEB7AF970FB6F894D4
:1036C000DEBF0FBECDBF8C016B017A018FEA92E0A5
:1036D0009A8389831B821C821D821E821C861B8604
:1036E00048EE53E060E070E04D875E876F87788B2F
:1036F00027E232E03A872987988F8F8B198E1A8EAE
:103700001B8E1C8E28E029A39BA78AA71CA61DA69A
:103710001EA61FA6D8011C968C91883060F40E94CA
:10372000500F882321F0F80184850E942B0F88E038
:10373000D8011C968C938091440690914506A091E7
:103740004606B09147068EA39FA3A8A7B9A78B836F
:103750009C83AD83BE8318861F82AE01465D5F4F9A
:10376000B601CE0101960E9480180097C1F0D801E1
:10377000ED91FC910684F785E02D8FEA92E09DA300
:103780008CA38CA59DA5AEA5BFA58EA39FA3A8A71E
:10379000B9A7A701BE016C5D7F4FC8011995AF960F
:1037A0000FB6F894DEBF0FBECDBFDF91CF911F9152
:1037B0000F91FF90EF90DF90CF900895EF92FF92DE
:1037C0000F931F93CF93DF9300D01F92CDB7DEB737
:1037D0008C017B01FB0184858830A8F08FEA92E0A0
:1037E000F801918380831282138214821582C801AA
:1037F0000F900F900F900F90DF91CF911F910F912D
:10380000FF90EF90089580E591E00E94AA0224E0E5
:1038100030E0AE014F5F5F4F6CE070E0F7018485F0
:103820000E9421128FEA92E0F801918380838981BE
:103830009A81AB81BC8182839383A483B583D7CFE4
:103840001F920F920FB60F9211242F933F938F93D5
:103850009F93AF93BF938091D4049091D504A0918E
:10386000D604B091D7043091D30423E0230F2D3731
:1038700058F50196A11DB11D2093D3048093D40463
:103880009093D504A093D604B093D7048091D80424
:103890009091D904A091DA04B091DB040196A11DA6
:1038A000B11D8093D8049093D904A093DA04B09307
:1038B000DB04BF91AF919F918F913F912F910F901A
:1038C0000FBE0F901F90189526E8230F0296A11D9A
:1038D000B11DD2CF1F920F920FB60F9211240BB6CB
:1038E0000F922F933F934F935F936F937F938F9399
:1038F0009F93AF93BF93EF93FF938FE695E00E9462
:103900009706FF91EF91BF91AF919F918F917F911A
:103910006F915F914F913F912F910F900BBE0F9040
:103920000FBE0F901F9018951F920F920FB60F9217
:1039300011240BB60F922F938F939F93EF93FF93C6
:10394000E0917F05F09180058081E0918505F091FF
:10395000860582FD1DC09081809188058F5F8F73E1
:1039600020918905821741F0E0918805F0E0E15946
:10397000FA4F958F80938805FF91EF919F918F91DA
:103980002F910F900BBE0F900FBE0F901F901895A8
:103990008081F2CF1F920F920FB60F9211240BB6B7
:1039A0000F922F933F934F935F936F937F938F93D8
:1039B0009F93AF93BF93EF93FF938091B900887F5C
:1039C000803609F44DC008F040C0883209F4A9C01F
:1039D00028F5803109F49DC0C8F4882309F4FBC0A0
:1039E000883009F496C0FF91EF91BF91AF919F91FC
:1039F0008F917F916F915F914F913F912F910F9098
:103A00000BBE0F900FBE0F901F901895883109F4D0
:103A100088C0803241F78093450514C0803409F492
:103A20009DC040F48033B9F38833E9F680934505AF
:103A300085ECB0C0803509F485C0883509F496C09E
:103A4000883489F60E943B0ECECF883909F48CC0A9
:103A500038F5883729F050F4883611F0803719F698
:103A600083E0809367051092910457C0883809F469
:103A70007BC0803919F0803809F0B5CF809191046E
:103A8000803208F071C0E091910481E08E0F809344
:103A900091048091BB00F0E0EF58FB4F80833DC064
:103AA000803B39F0E0F4803A09F479C0883A09F0B3
:103AB0009ACF84E0809367051092700410926F048F
:103AC000E0919404F0919504199580916F0481110F
:103AD0000FC081E080936F0410924F0409C0803CB6
:103AE00009F4A6CF883C09F4A3CF883B09F07BCF2B
:103AF000E091700481E08E0F80937004F0E0E15B50
:103B0000FB4F80818093BB009091700480916F0483
:103B100029C0809142058093BB0085EC8093BC0056
:103B200062CF9091440580914305981758F5E09134
:103B3000440581E08E0F80934405F0E0EF5DFA4F7D
:103B40008081E9CFE091440581E08E0F80934405A8
:103B50008091BB00F0E0EF5DFA4F808390914405C7
:103B6000809143059817C8F285E8D8CFE0914405C5
:103B700081E08E0F809344058091BB00F0E0EF5D03
:103B8000FA4F80838091460581115CCF81E080935C
:103B9000410584EA8093BC001092670524CF85EC30
:103BA0008093BC001092670580919104803230F4BC
:103BB000E0919104F0E0EF58FB4F10826091910486
:103BC00070E0E0919204F091930481E794E01995FC
:103BD0001092910408CF1092450534CFCF92DF9216
:103BE000EF92FF920F931F93CF93DF93EFE6F5E0F1
:103BF0001382128288EEC82E83E0D82EE12CF12C9D
:103C0000C482D582E682F78281E592E09183808347
:103C100085EC90E09587848784EC90E09787868791
:103C200080EC90E0918B808B81EC90E0938B828B89
:103C300082EC90E0958B848B86EC90E0978B868B62
:103C4000118E128E138E148EECE0F6E01382128227
:103C5000C482D582E682F78283E692E091838083F4
:103C6000E8E1F6E0CFEAD2E0D183C083128213828A
:103C700014821582EEE1F6E0D183C08312821382B2
:103C800014821582E4E2F6E0D183C08312821382AB
:103C900014821582EAE2F6E0D183C0831282138295
:103CA00014821582E0E3F6E0D183C083128213828E
:103CB00014821582E6E3F6E0D183C0831282138278
:103CC00014821582ECE3F6E0D183C0831282138262
:103CD00014821582E8E4F6E0D183C0831282138255
:103CE00014821582E2E4F6E0D183C083128213824B
:103CF00014821582EEE4F6E0D183C083128213822F
:103D000014821582E0EAF6E0D183C0831282138226
:103D100014821582EAE9F6E0D183C08320EC228385
:103D200098EA938384E4848337E93583E4E9F6E011
:103D3000D183C08322839383848381E485830E941B
:103D40000F0460939006709391068093920690936F
:103D500093060E940F0460938C0670938D068093E7
:103D60008E0690938F06EDE7F6E013821282C482EE
:103D7000D582E682F78281E892E09183808388E0B1
:103D8000848788EE93E09687858704E516E0D8015E
:103D900013961C921E92129785E792E011969C93BF
:103DA0008E935C96DC93CE935B975D961D921D92ED
:103DB0001D921C9290978FEF9FEF98969C938E93F5
:103DC00097971596FC93EE93149796961C921E92D5
:103DD000959780E091E00E944F2BF80197838683AE
:103DE00080E091E0918780878FE090E093878287E1
:103DF00095878487DF91CF911F910F91FF90EF906E
:103E0000DF90CF900895CF93DF93CDB7DEB72E9795
:103E10000FB6F894DEBF0FBECDBF789484B5826034
:103E200084BD84B5816084BD85B5826085BD85B55E
:103E3000816085BD80916E00816080936E001092DC
:103E40008100809181008260809381008091810057
:103E500081608093810080918000816080938000E8
:103E60008091B10084608093B1008091B000816046
:103E70008093B00080919100826080939100809146
:103E80009100816080939100809190008160809387
:103E900090008091A10082608093A1008091A10098
:103EA00081608093A1008091A00081608093A00038
:103EB00080912101826080932101809121018160A4
:103EC0008093210180912001816080932001809165
:103ED0007A00846080937A0080917A008260809377
:103EE0007A0080917A00816080937A0080917A00D4
:103EF000806880937A001092C100E0917F05F09174
:103F0000800582E08083E0917B05F0917C05108242
:103F1000E0917D05F0917E058FEC808310928705FE
:103F2000E0918305F091840586E08083E09181052E
:103F3000F0918205808180618083E0918105F0911C
:103F40008205808188608083E0918105F0918205FF
:103F5000808180688083E0918105F0918205808175
:103F60008F7D80830FEA12E01A8309838091960681
:103F700090919706A0919806B09199068B839C83A7
:103F8000AD83BE83CE0101960E94AD0289E09EE022
:103F900090936E0680936D061A83098380919C0628
:103FA00090919D06A0919E06B0919F068B839C8365
:103FB000AD83BE83CE0101960E9411106CED75E0B9
:103FC00080E090E00E94DD036DE080E00E948703C6
:103FD00062E083E00E94870361E084E00E9487033F
:103FE00061E084E00E94590362E085E00E9487035B
:103FF00062E086E00E94870361E087E00E94870319
:1040000061E087E00E94590361E088E00E94870335
:1040100061E088E00E94590362E089E00E94870322
:1040200062E08AE00E94870361E08BE00E948703E0
:1040300061E08BE00E9459036DE080E00E948703FD
:1040400062E083E10E94870361E083E10E945903FB
:1040500060ED72E08FE695E00E94D90D8CE096E06D
:1040600090936E0580936D051092150510921405BE
:1040700010921705109216050E947E078AE196E0BD
:1040800090939504809394048BE196E0909393042D
:104090008093920464E670E080E090E00E94DD038B
:1040A00080916D0590916E0521E02093190520E423
:1040B00020931805DC01ED91FC910190F081E02D39
:1040C00067EE199580916D0590916E050E9411091A
:1040D00061E080E40E94BD071092150580931405ED
:1040E00080916D0590916E05DC01ED91FC9102844B
:1040F000F385E02D1995182F682F607470E08FED0F
:1041000092E00E94F50D612F647070E080EF92E004
:104110000E94F50D1270612F70E081E093E00E9423
:10412000F50D61E084E00E94870361E084E00E9475
:10413000590322242394312C0E9472028111A3C1BD
:1041400012E00E94720281119EC166E173E08FE667
:1041500095E00E94ED0D0E947202811136C180919E
:10416000580690915906DC01ED91FC910688F7897B
:10417000E02D1995882309F478C0309263062092C7
:10418000620687E0ECE1F2E0DE01119601900D920B
:104190008A95E1F7DE01119685E090E02D91E0919E
:1041A0005A06F0915B06E80FF91F208301968C30C8
:1041B0009105A1F7E0905A06F0905B06D7011C9696
:1041C0001C931C9780915F061D968C931D97809180
:1041D0005E061E968C93C0905C06D0905D06B6017C
:1041E00084E393E00E946C264196C816D90608F035
:1041F00075C08091580690915906DC01ED91FC91B3
:104200000488F589E02D199569E673E08FE695E05D
:104210000E94ED0DC0907B06D0907C060D2C000C0A
:10422000EE08FF082AE0B701A601F7FE0DC06DE217
:104230008FE695E00E941C0644275527BA014C19C9
:104240005D096E097F092AE08FE695E00E94470D1F
:1042500065E773E08FE695E00E94D90D68E873E1A9
:1042600080E090E00E94DD036CCF60917506709154
:1042700076068091580690915906DC01ED91FC91EB
:1042800040917706509178066115710571F00088AC
:10429000F189E02D1995019709F46FCFEEEFFFEF4B
:1042A000F0937C06E0937B06AFCF0684F785E02D84
:1042B000AFEACA2EA2E0DA2EDA82C982C090710675
:1042C000D0907206E0907306F0907406CB82DC8288
:1042D000ED82FE82BE016F5F7F4FDCCF4FE050E08A
:1042E000B70184E393E00E945002AC0145505109AC
:1042F00060915A0670915B0680E10E941B040E9447
:104300000F0460936406709365068093660690932D
:104310006706609368067093690680936A069093B7
:104320006B068091580690915906DC01ED91FC9145
:104330000084F185E02D1995892B31F50E940F0439
:10434000C0906806D0906906E0906A06F0906B060F
:104350009B01AC012C193D094E095F0969017A01E5
:104360002091600630916106A8EEB3E00E94F52826
:10437000C616D706E806F906A0F24CEF5FEF509399
:104380007C0640937B0635CFCE0108960E94C90477
:10439000643071058105910509F02BCFE0915A0633
:1043A000F0915B068381811163C00E940F046093CA
:1043B00068067093690680936A0690936B06109264
:1043C0006C0610927C0610927B0662E473E08FE626
:1043D00095E00E94D90D6CE473E088E593E00E94BB
:1043E000D70CE0905C06F0905D06B70181E693E0A3
:1043F0000E946C260996E816F90608F4A2CE0E94DF
:104400007202882309F49DCE809162069091630622
:104410000196A1F19093630680936206E0915A069B
:10442000F0915B06809163068583E0915A06F091D6
:104430005B0680916206868360915A0670915B06E6
:1044400047E050E081E693E00E945002E0915A0676
:10445000F0915B06E80FF91F1082AC01445051093E
:1044600060915A0670915B0682E80E941B0469CE37
:1044700090E090937C0680937B06BBCE30926306DF
:1044800020926206CBCF0E947202882309F44FC0AB
:104490000E940F044B015C0120915E0630915F0683
:1044A000A8EEB3E00E94F528009168061091690615
:1044B00020916A0630916B0675016401C01AD10A19
:1044C000E20AF30A970186016017710782079307D2
:1044D000B0F0009164061091650620916606309157
:1044E000670675016401C01AD10AE20AF30A97014E
:1044F0008601601771078207930708F02DC280912B
:104500006C06882309F4F9C17CEFE72EFF24FA94A6
:10451000F0927C06E0927B068091580690915906B5
:10452000DC01ED91FC910488F589E02D19950E943C
:104530000F04AB01BC018091900690919106A0916F
:104540009206B09193068053984FAF4FBF4F841798
:104550009507A607B70708F07CC00E940F04609378
:10456000900670939106809392069093930685EF40
:104570000E943C0C9C01265E3340BC0190E080E030
:104580002230310508F0DAC20E94262A4B015C0174
:1045900083EF0E943C0C9C01265E3340BC0190E0FE
:1045A00080E02230310508F0D8C20E94262A6B0133
:1045B0007C016DE873E08FE695E00E94D90DA701BC
:1045C0009601C701B6010E944A2B6BEA73E0811184
:1045D0001BC026013701E89477F82FEF3FEF4FE734
:1045E0005FE7C301B2010E944A2B8111C5C22FEFC0
:1045F0003FEF4FE75FE7C301B2010E947929181628
:104600000CF0BAC26FEA73E08FE695E00E94380DB5
:1046100061EB72E08FE695E00E94380D03EC14E048
:1046200021E041E0C701B6010E944E2603EB14E0F1
:1046300021E041E0C501B4010E944E26B80187EB9C
:1046400093E00E94D70C63EC74E087EC93E00E9447
:10465000D70C0E940F04AB01BC0180918C06909195
:104660008D06A0918E06B0918F068053984FAF4F64
:10467000BF4F84179507A607B70788F5E090AE04EB
:10468000F090AF0483E10E94300321E0892B09F40C
:1046900020E08091B204281711F18091B00490912C
:1046A000B10401969093B1048093B0040B97BCF0D1
:1046B000BFEFEB1AFB0AF092AF04E092AE04209336
:1046C000B2041092B1041092B0040E940F046093DF
:1046D0008C0670938D0680938E0690938F06609162
:1046E000AE047091AF048091AC049091AD04681752
:1046F0007907E1F1072E000C880B990B0E94282AFC
:104700000AEA14E020E041E00E944E26B80183ED61
:1047100093E00E94D70C6091AE047091AF04072E15
:10472000000C880B990B0E94282A23E333E343E310
:1047300050E40E947E290E94F029072E000C880B6D
:10474000990B0E94282A08EA14E020E041E00E9428
:104750004E26B80186EE93E00E94D70C8091AE04FD
:104760009091AF049093AD048093AC0489E00E94D3
:1047700030037C019093A7048093A6048AE00E94F2
:104780003003009709F05CC23092070220920602C3
:10479000E1E0EE16F10409F061C260910602709149
:1047A0000702809104029091050268177907C9F009
:1047B000072E000C880B990B0E94282A04EA14E0AB
:1047C00020E041E00E944E26B8018BEF93E00E946A
:1047D000D70C809106029091070290930502809376
:1047E000040285E00E9430037C019093A30480932F
:1047F000A20486E00E943003009709F035C230928F
:1048000003022092020221E0E216F10409F03AC20A
:104810006091020270910302809100029091010266
:1048200068177907C9F0072E000C880B990B0E94B6
:10483000282A00EA14E020E041E00E944E26B80158
:1048400088E094E00E94D70C8091020290910302CC
:10485000909301028093000283E00E9430039093C2
:104860009F0480939E0420919C0430919D048217A4
:104870009307C9F0BC01990F880B990B0E94282A55
:104880000AE914E020E041E00E944E26B80185E1EB
:1048900094E00E94D70C80919E0490919F04909385
:1048A0009D0480939C048DE00E9430037C018091E4
:1048B000980490919904E816F906E1F0B7010F2CDD
:1048C000000C880B990B0E94282A06E914E020E0CE
:1048D00041E00E944E26B80180E294E00E94D70C8D
:1048E00067E274E08FE695E00E94D90DF09299049A
:1048F000E09298040E9426071FCCE0915A06F0919E
:104900005B0680EC8083E0915A06F0915B06118291
:10491000809158069091590660915A0670915B06F5
:10492000DC01ED91FC910280F381E02D42E050E04A
:1049300019958092640690926506A0926606B092E0
:1049400067068092680690926906A0926A06B09205
:104950006B0681E080936C06809158069091590611
:10496000DC01ED91FC910084F185E02D1995892BF6
:1049700009F4DDCDCE0101960E94C9042B01672BFD
:1049800009F4D9C08092680690926906A0926A06DE
:10499000B0926B06E0915A06F0915B068081807FB1
:1049A000803309F0A7C080916D0690916E06892B27
:1049B00009F4BDCD498150E0CA0102968E0F9F1FB8
:1049C000DF01A40FB51F1196EC90F12CFE2CEE2404
:1049D000DC016C91E60EF11CBA016D5F7F4F6E0F2A
:1049E0007F1FA7010E94742C8981E0915A06F091E3
:1049F0005B06EE0DFF1DE80FF11D1282A0915A0615
:104A0000B0915B06298130E06901E2E0CE0ED11C55
:104A1000CA0EDB1E1C911670E0916D06F0916E06B9
:104A2000FE87ED87123009F051C0B701620F731F86
:104A3000FD01E60FF71F838190E0982F88274481BE
:104A4000FC01E40FF11DFA87E9874BEF5FEF421B92
:104A5000530B4E195F09440D551D6B5F7F4F6A0F55
:104A60007B1FC601ED85FE851995E0915A06F091F0
:104A70005B0680E48083E0915A06F0915B06118327
:104A8000E0915A06F0915B06CA84C282E0915A0610
:104A9000F0915B06D984D382809158069091590693
:104AA00060915A0670915B06DC01ED91FC910280E9
:104AB000F381E02D44E050E01995809264069092D5
:104AC0006506A0926606B092670631CD4DEF5FEFA6
:104AD000421B530B4E195F09440D551D2D5F3F4F6F
:104AE0002E0D3F1DBD01620F731FC601ED85FE85B2
:104AF00019951DCD803CC9F480ED8083E0915A0664
:104B0000F0915B0611828091580690915906609150
:104B10005A0670915B06DC01ED91FC910280F381F5
:104B2000E02D42E050E0199502CD803D09F0FFCC28
:104B300010926C06FCCC0E947202F9CC0E94262ACC
:104B400020E030E04AEF5AE30E94DD2A20E030E026
:104B500040EC50E40E940C2919CD0E94262A22E53F
:104B600038EB4FE25BE30E94DD2A26E636E64BE3B4
:104B700052E40E940C291BCD2FEF3FEF4FE75FE47B
:104B8000C701B6010E94D82A18161CF463EB73E023
:104B90003BCD2FEF3FEF4FE75FECC701B6010E941F
:104BA000792987FDF3CF20E030E0A901C701B601E4
:104BB0000E94792987FF41C06DE28FE695E00E944F
:104BC0001C06C701B60190582DEC3CEC4CE45DE3AB
:104BD0000E940D292B013C010E94F72969877A87E1
:104BE0008B879C870E94262A9B01AC01C301B201DE
:104BF0000E940C292B013C012AE049855A856B85CE
:104C00007C858FE695E00E94470D6EE28FE695E089
:104C10000E941C0620E030E040E251E4C301B201F2
:104C20000E94DD2A0E94F729AB0170E060E02AE0D3
:104C30008FE695E00E94470DEBCCC701B601C4CFCB
:104C4000F1E0EF16F10451F4019709F0A6CD82E0EE
:104C500090E090930702809306029FCDEF2809F021
:104C60009CCD83E090E0F5CF31E0E316F10451F400
:104C7000019709F0CDCD82E090E0909303028093FC
:104C80000202C6CDEF2809F0C3CD83E090E0F5CF56
:104C900080915A0690915B060C94EB2BEF920F9348
:104CA0001F93CF93DF93E80134E047FD34E1042EF6
:104CB000000C550B57FF03C0519541955109E32E48
:104CC000022F242FAE010E947726CE01DF91CF91D3
:104CD0001F910F91EF900895FC0161507040019079
:104CE0000110D8F7809590958E0F9F1F08958F9291
:104CF0009F92AF92BF92CF92DF92EF92FF920F936B
:104D00001F93CF93DF9300D000D000D0CDB7DEB794
:104D10006A01F22EB02E102FFBE3AF2EA01608F47E
:104D20001BE31F5F012F27E0AE014F5F5F4F0E9423
:104D3000F027BC018981982F9970913009F44EC0F9
:104D40009BE2E1FC04C09E2D9170E0FC49C05E2D09
:104D50005071E82FE87083FF55C084E0911101C0C5
:104D600083E0EF2DE81B8F1508F0E0E0D6018E2FD1
:104D700020E25523C9F1992329F0D6019C93C6015D
:104D800001966C0196012D5F3F4FE2FE33C08EE429
:104D9000D6018C9391E411969C93119712968C9363
:104DA000D9018E2F90E281112AC0E20FF32FF11D5D
:104DB00010828EEF9FEF29960FB6F894DEBF0FBEDC
:104DC000CDBFDF91CF911F910F91FF90EF90DF90BA
:104DD000CF90BF90AF909F908F9008959DE2B7CFF6
:104DE00090E2B5CF2D9381508111FCCFCE0ED11C16
:104DF000E0E0C1CF8EE6D6018C9391E6CCCF9D93B7
:104E00008150D1CF482F447082FF3DC084E0911182
:104E100001C083E08F1510F4EF2DE81BD6018E2F13
:104E200020E2552309F1992329F0D6019C93C6016C
:104E300001966C0196012D5F3F4FE2FE1BC089E495
:104E4000D6018C938EE411968C93119786E412967A
:104E50008C93D9018E2F90E2882309F4A6CF9D93DD
:104E60008150FACF2D9381508111FCCFCE0ED11CF1
:104E7000E0E0D9CF89E6D6018C938EE611968C932B
:104E8000119786E6E4CF9B0177FF02C030E020E077
:104E9000A1E0B0E0911102C0B0E0A0E0F9013196CC
:104EA000AE0FBF1F8B2C912CBB2009F461C05401A5
:104EB000EFEFAE1ABE0AAA0DBB1DFA161B0619F0BB
:104EC00014F04F2D4A1B511188C0E3FC59C07601E4
:104ED000A42FB0E2A1114FC0C40ED11C992309F434
:104EE0005BC040E0D6011196F60190836D01552319
:104EF00009F448C0012F060F9A81582F507184FF82
:104F000003C0913309F4015010160CF047C009306A
:104F100008F008E0EEE2FE2E5B01A01AB108850160
:104F20009194819491082F3F320729F4D601FC9285
:104F3000F60131966F016217730794F10217130798
:104F40007CF5DB01A21BB30BAA24A394B12CAC0EFD
:104F5000BD1EAA0DBB1D11968C9121503109D601A1
:104F6000119628153905F4F0F60180836D01DBCF29
:104F7000B12CA12CA0CFF701B1937F01A150AACFF2
:104F80009111B0CFD601942F50E302C05D939150A0
:104F90009111FCCFC40ED11C40E0ACCF01E0BACFE0
:104FA00080E3DBCF6217730731F4963388F49533CF
:104FB00011F4552369F0F6018083FD01842F90E2FE
:104FC000811108C0A40FB11D1C9290E080E0F3CEC7
:104FD00081E3F1CF91938150F3CF911183CF8ACFA9
:104FE000283008F027E03327DA01990F311D87FDBB
:104FF000916000966105710539F432602E5F3D9332
:1050000030E32A95E1F708959F3F30F0803871052D
:10501000610509F03C5F3C5F3D93913008F080688A
:10502000911DDF93CF931F930F93FF92EF92192F50
:10503000987F9695E92F96959695E90FFF27EA5860
:10504000FD4F99273327EE24FF24A701E7010590A0
:105050000894079428F4360FE71EF81E491F511DC7
:10506000660F771F881F991F0694A1F70590079474
:1050700028F4E70EF81E491F561FC11D770F881F21
:10508000991F661F0694A1F70590079428F4F80E5F
:10509000491F561FC71FD11D880F991F661F771FF5
:1050A0000694A1F70590079420F4490F561FC71FD7
:1050B000D81F990F661F771F881F0694A9F7849140
:1050C0001095177041F0D695C79557954795F79469
:1050D000E7941A95C1F7ECE1F2E068941590159108
:1050E00035916591959105907FE27395E118F10AEC
:1050F000430B560BC90BD009C0F7E10CF11E431F3F
:10510000561FC91FD01D7EF4703311F48A95E6CF67
:10511000E894015030F0080F0AF40027021708F451
:10512000202F2395022F7A3328F079E37D932A9557
:10513000E9F710C07D932A9589F6069497956795AF
:10514000379517951794E118F10A430B560BC90BC5
:10515000D00998F023957E9173957A3308F070E327
:105160007C932013B8F77E9170617D9330F0839526
:1051700071E37D9370E32A95E1F71124EF90FF909E
:105180000F911F91CF91DF91992787FD90950895F9
:105190000E94F528A59F900DB49F900DA49F800DAF
:1051A000911D11240895A1E21A2EAA1BBB1BFD011B
:1051B0000DC0AA1FBB1FEE1FFF1FA217B307E407F6
:1051C000F50720F0A21BB30BE40BF50B661F771F4E
:1051D000881F991F1A9469F760957095809590952E
:1051E0009B01AC01BD01CF010895A29FB001B39F07
:1051F000C001A39F700D811D1124911DB29F700DE0
:10520000811D1124911D0895EE0FFF1F881F8BBF74
:105210000790F691E02D19945058BB27AA270E94B9
:1052200024290C949E2A0E94902A38F00E94972AE2
:1052300020F039F49F3F19F426F40C948D2A0EF4D3
:10524000E095E7FB0C94872AE92F0E94AF2A58F3D8
:10525000BA17620773078407950720F079F4A6F55B
:105260000C94D12A0EF4E0950B2EBA2FA02D0B0131
:10527000B90190010C01CA01A0011124FF27591B9B
:1052800099F0593F50F4503E68F11A16F040A22FA1
:10529000232F342F4427585FF3CF46953795279512
:1052A000A795F0405395C9F77EF41F16BA0B620B11
:1052B000730B840BBAF09150A1F0FF0FBB1F661F58
:1052C000771F881FC2F70EC0BA0F621F731F841F9B
:1052D00048F4879577956795B795F7959E3F08F0C1
:1052E000B0CF9395880F08F09927EE0F9795879583
:1052F00008950E94632A08F481E008950E9492298B
:105300000C949E2A0E94972A58F00E94902A40F0FE
:1053100029F45F3F29F00C94872A51110C94D22A6A
:105320000C948D2A0E94AF2A68F39923B1F3552378
:1053300091F3951B550BBB27AA27621773078407A8
:1053400038F09F5F5F4F220F331F441FAA1FA9F33E
:1053500035D00E2E3AF0E0E832D091505040E6952C
:10536000001CCAF72BD0FE2F29D0660F771F881F8D
:10537000BB1F261737074807AB07B0E809F0BB0B80
:10538000802DBF01FF2793585F4F3AF09E3F510594
:1053900078F00C94872A0C94D22A5F3FE4F3983E6D
:1053A000D4F3869577956795B795F7959F5FC9F77D
:1053B000880F911D9695879597F90895E1E0660FFE
:1053C000771F881FBB1F621773078407BA0720F077
:1053D000621B730B840BBA0BEE1F88F7E0950895E0
:1053E0000E94F7296894B1110C94D22A08950E9462
:1053F000B72A88F09F5798F0B92F9927B751B0F086
:10540000E1F0660F771F881F991F1AF0BA95C9F748
:1054100014C0B13091F00E94D12AB1E008950C94EB
:10542000D12A672F782F8827B85F39F0B93FCCF39E
:10543000869577956795B395D9F73EF490958095C5
:10544000709561957F4F8F4F9F4F0895E89409C0E5
:1054500097FB3EF490958095709561957F4F8F4FA7
:105460009F4F9923A9F0F92F96E9BB279395F695BD
:10547000879577956795B795F111F8CFFAF4BB0F3B
:1054800011F460FF1BC06F5F7F4F8F4F9F4F16C09F
:10549000882311F096E911C0772321F09EE8872F29
:1054A000762F05C0662371F096E8862F70E060E0E5
:1054B0002AF09A95660F771F881FDAF7880F96955E
:1054C000879597F90895990F0008550FAA0BE0E802
:1054D000FEEF16161706E807F907C0F012161306B6
:1054E000E407F50798F0621B730B840B950B39F4F6
:1054F0000A2661F0232B242B252B21F408950A265C
:1055000009F4A140A6958FEF811D811D089597F99B
:105510009F6780E870E060E008959FEF80EC089559
:1055200000240A9416161706180609060895002482
:105530000A9412161306140605060895092E0394FC
:10554000000C11F4882352F0BB0F40F4BF2B11F470
:1055500060FF04C06F5F7F4F8F4F9F4F089557FDCF
:105560009058440F551F59F05F3F71F04795880FD1
:1055700097FB991F61F09F3F79F087950895121668
:1055800013061406551FF2CF4695F1DF08C0161614
:1055900017061806991FF1CF8695710561050894C5
:1055A0000895E894BB2766277727CB0197F90895DC
:1055B0000E94632A08F48FEF08950E94F02A0C9449
:1055C0009E2A0E94902A38F00E94972A20F0952364
:1055D00011F00C94872A0C948D2A11240C94D22A51
:1055E0000E94AF2A70F3959FC1F3950F50E0551FAD
:1055F000629FF001729FBB27F00DB11D639FAA2728
:10560000F00DB11DAA1F649F6627B00DA11D661F76
:10561000829F2227B00DA11D621F739FB00DA11D97
:10562000621F839FA00D611D221F749F3327A00D51
:10563000611D231F849F600D211D822F762F6A2FED
:1056400011249F5750409AF0F1F088234AF0EE0F52
:10565000FF1FBB1F661F771F881F91505040A9F77F
:105660009E3F510580F00C94872A0C94D22A5F3F0C
:10567000E4F3983ED4F3869577956795B795F795BB
:10568000E7959F5FC1F7FE2B880F911D9695879533
:1056900097F908950E94632A880B990B08950F9338
:1056A0001F93CF93DF938230910510F482E090E056
:1056B000E091A806F091A90630E020E0B0E0A0E07B
:1056C000309799F42115310509F44AC0281B390B8C
:1056D00024303105D8F58A819B816115710589F1E6
:1056E000FB0193838283FE0111C0408151810281BD
:1056F000138148175907E0F04817590799F4109794
:1057000061F012960C93129713961C933296CF0168
:10571000DF91CF911F910F9108950093A8061093E8
:10572000A906F4CF2115310551F04217530738F07F
:10573000A901DB019A01BD01DF01F801C1CFEF0131
:10574000F9CF9093A9068093A806CDCFFE01E20F72
:10575000F31F819391932250310939832883D7CF46
:105760002091A6063091A706232B41F42091120226
:10577000309113023093A7062093A60620911002C1
:10578000309111022115310541F42DB73EB74091FA
:10579000140250911502241B350BE091A606F091DE
:1057A000A706E217F307A0F42E1B3F0B28173907B3
:1057B00078F0AC014E5F5F4F2417350748F04E0F6D
:1057C0005F1F5093A7064093A606819391939FCFA6
:1057D000F0E0E0E09CCFCF93DF930097E9F0FC018D
:1057E000329713821282A091A806B091A906ED010A
:1057F00030E020E01097A1F420813181820F931FC7
:105800002091A6063091A7062817390709F061C034
:10581000F093A706E093A606DF91CF910895EA01E1
:10582000CE17DF07E8F54A815B819E0141155105DE
:10583000B1F7E901FB83EA8349915991C40FD51F60
:10584000EC17FD0761F4808191810296840F951F0A
:10585000E90199838883828193819B838A83F0E025
:10586000E0E012968D919C9113970097B9F52D91D8
:105870003C911197CD010296820F931F2091A606AD
:105880003091A7062817390739F6309751F510924D
:10589000A9061092A806B093A706A093A606BCCFAF
:1058A000D383C28340815181840F951FC817D907C4
:1058B00061F44E5F5F4F88819981480F591F518372
:1058C00040838A819B81938382832115310509F06E
:1058D000B0CFF093A906E093A8069ECFFD01DC01AE
:1058E000C0CF13821282D7CF6817790768F4FB0103
:1058F000DC01E40FF51FA40FB51F02C002900E9249
:1059000041505040D8F708950C948D2CDC0101C013
:105910006D9341505040E0F70895FB01DC0102C057
:1059200001900D9241505040D8F7089512E0CCE11B
:10593000D2E000E006C0802FFE010E9404292196DB
:10594000011DCD31D10780E00807A9F7F894FFCFFA
:10595000020001000200010000C0DEEDBAFEFEED13
:105960000000AA06800001005E00000000044D5106
:1059700054540400000000570B3E141E0CC802C40F
:10598000023416F81134171013430F8F0BE01AB7B7
:105990000F24181516DE0BCE0BCA0BC60B00000029
:1059A00000B90623065006060781065F0673060047
:1059B000000000E208B5081E0CC802AE089B088C67
:1059C0000800000000050CE50B1E0C1D0C0000007B
:1059D00000780B7814351420143B155E160712520C
:1059E00017531B78167E0F5C0F340C310C2F0C6D87
:1059F0000B250CF917DE1BCE17210C0000000093BD
:105A00000D0D0A00796573006E6F004D657373614B
:105A100067652061727269766564205B005D2000B5
:105A20005348543230204578616D706C65210045D3
:105A30006E64206F6620626174746572793A20002A
:105A400048656174657220656E61626C65643A20B8
:105A50000044697361626C65204F54502072656C1C
:105A60006F61643A2000417474656D7074696E678B
:105A7000204D51545420636F6E6E656374696F6E70
:105A80002E2E2E0061726475696E6F436C69656EAF
:105A90007400636F6E6E65637465640068656C6C3A
:105AA0006F20776F726C64006F7574546F706963E8
:105AB00000696E546F706963006661696C65642C7F
:105AC0002072633D002074727920616761696E20E5
:105AD000696E2035207365636F6E6473005465735F
