:100000000C9431020C9462020C9462020C94620211
:100010000C9462020C9462020C9462020C946202D0
:100020000C9462020C9462020C9462020C946202C0
:100030000C9462020C9462020C9462020C946202B0
:100040000C9462020C9462020C9462020C946202A0
:100050000C9462020C9462020C9462020C944D1D8A
:100060000C9462020C9484140C945A140C94620242
:100070000C9462020C9462020C9462020C94620270
:100080000C9462020C9462020C9462020C94620260
:100090000C9462020C9462020C9462020C94BA14E6
:1000A0000C9462020C9462020C9462020C94620240
:1000B0000C9462020C9462020C9462020C94620230
:1000C0000C9462020C9462020C9462020C94620220
:1000D0000C9462020C9462020C9462020C94620210
:1000E0000C9462020A1A0D1AFC19001A061A441A14
:1000F000111A151A1B1A1F1A231A291A2D1A311A26
:10010000441A371A3B1A3F1A0C94810B0C94441A68
:100110000C94B5020C94AD050C94AD130C94D51150
:100120000C940A130C94BD070C940A1A0C94D20276
:100130000C940B130C9464130C941F1A0C94B102BE
:100140000C9437130C9480080C9474030C94D70708
:100150000C94291A0C9454030C9472020C94C6113A
:100160000C94DE020C94C40A0C94971D0C94970214
:100170000C94231A0C942D1A0C941B1A0C94061A26
:100180000C9419070C94E9110C943B1A0C940D1A59
:100190000C94C5020C943B0B0C942F130C94F71188
:1001A0000C940C0B0C94DC020C94EA020C94151ABF
:1001B0000C9457080C948C020C94A3080C94AD0278
:1001C0000C94F0080C94FC190C9414140C94DB0897
:1001D0000C942F120C9488020C94001A0C943F1A61
:1001E0000C949C110C9416080C941B0A0C94111A74
:1001F0000C94E1020C9409130C94371A0C94CE025F
:100200000C94390A0C948C030C9438070C94E20576
:100210000C947C120C94311A0C94E9020C94810A0F
:100220000C94B00B0C943A060C94F1050C940C133E
:100230000C94D4240C941B130C9461070C94390C6B
:100240000C94ED0200407A10F35A00A0724E180987
:100250000010A5D4E80000E87648170000E40B542D
:10026000020000CA9A3B000000E1F50500008096FC
:100270009800000040420F000000A086010000002E
:10028000102700000000E8030000000064000000E8
:1002900000000A00000000000100000000002C76B1
:1002A000D888DC674F0823DFC1DFAE59E1B1B796CC
:1002B000E5E3E453C63AE651997696E8E6C2842629
:1002C000EB898C9B62ED407C6FFCEFBC9C9F40F205
:1002D000BAA56FA5F490055A2AF75C936B6CF96781
:1002E0006DC11BFCE0E40D47FEF520E6B500D0ED46
:1002F000902E0300943577050080841E08000020AE
:100300004E0A000000C80C333333330F986E12834B
:100310001141EF8D2114893BE65516CFFEE6DB181F
:10032000D1844B381BF77C1D901DA4BBE4242032E4
:1003300084725E228100C9F124ECA1E53D27000012
:100340002100240027002A002D0030003300010185
:100350000000040107010A01000022002500280016
:100360002B002E00310034000201000005010801BD
:100370000B01050505050705080808080202020229
:100380000A0A080804040404010101010101010131
:100390000303030303030303040707070C0C0C0CFC
:1003A0000C0C0C0C020202020606060606060606E5
:1003B0000B0B0B0B0B0B0B0B010210202008081072
:1003C00020401020408002010201080402010102C5
:1003D000040810204080804020100804020180049E
:1003E00002018040201008040201080402010102F9
:1003F0000408102040800102040810204080000002
:100400000A0B02090C0D0E0807030401000000008E
:1004100000000000000000000000000000000000DC
:100420000000000000000000000012111000000099
:1004300000000000000000000000000000000000BC
:1004400000000000000020002300260029002C00EE
:100450002F00320000010000030106010901D4242D
:10046000971D11241FBECFEFD1E2DEBFCDBF00E04C
:100470000CBF14E0A0E0B2E0E8E8F8E500E00BBF54
:1004800002C007900D92A235B107D9F726E0A2E588
:10049000B4E001C01D92A83DB207E1F712E0C0E34D
:1004A000D2E000E006C021970109802FFE010E94E2
:1004B0009F28CF32D10780E00807A9F70E949D1D31
:1004C0000C94322C0C9400002091980490E023337B
:1004D00011F40C9601C04896982F990F990F990F17
:1004E00080E00895CF93DF931F92CDB7DEB7698385
:1004F000DC01ED91FC910280F381E02D41E050E0C0
:10050000BE016F5F7F4F19950F90DF91CF910895D6
:10051000FC01818D928D0895FC019485FB018485F9
:10052000981303C081E0983008F080E00895CF93DD
:10053000DF931F92CDB7DEB76983DC01ED91FC91AB
:100540000280F381E02D41E050E0BE016F5F7F4FFC
:1005500019950F90DF91CF910895FC0184859585C1
:100560000895FC0184899589089527EC32E0FC0107
:1005700031832083FB014089518962897389FC01A1
:1005800042835383648375830895DC01ED91FC916C
:10059000048CF58DE02D199480E00895FC01768798
:1005A00065870895DC01ED91FC91068CF78DE02DB7
:1005B000199591E089270895862F089581E086276F
:1005C000089521E0FC018485883008F020E0822F26
:1005D0000895089580E090E00895AF92BF92CF9281
:1005E000DF92EF92FF920F931F93CF93DF93CDB7DC
:1005F000DEB7AF970FB6F894DEBF0FBECDBF8C014C
:100600005B016A01CE0101960E947C1187ECE82E05
:1006100082E0F82EFBA6EAA61CA61DA61EA61FA613
:100620008091FD059091FE05A091FF05B091000617
:100630008EA39FA3A8A7B9A78B839C83AD83BE83FA
:1006400018861F82AE01465D5F4FB501CE0101964F
:100650000E94F01A81309105B1F4D801ED91FC911E
:100660000488F589E02DFDA2ECA28CA59DA5AEA580
:10067000BFA58EA39FA3A8A7B9A7A601BE016C5DC5
:100680007F4FC8011995AF960FB6F894DEBF0FBE25
:10069000CDBFDF91CF911F910F91FF90EF90DF9031
:1006A000CF90BF90AF900895EF92FF920F931F935A
:1006B000CF93DF93EC018B017A010E94E41A688BDF
:1006C000798B8A8B9B8B8C819D81DC01ED91FC91D8
:1006D0000280F381E02DA701B801DF91CF911F9136
:1006E0000F91FF90EF9019941F93CF93DF93EC013C
:1006F000162F0E94E41A688B798B8A8B9B8B8C81D6
:100700009D81DC01ED91FC910190F081E02D612F44
:10071000DF91CF911F911994EF92FF920F931F9346
:10072000CF93DF93EC017B018A0165ED72E08CE4ED
:1007300095E00E94B613BE018CE495E00E94B613CA
:1007400067EE72E08CE495E00E94B613E7010E0DAF
:100750001F1DC017D10731F069918CE495E00E940C
:10076000AF13F7CF6AEE72E08CE495E0DF91CF91A2
:100770001F910F91FF90EF900C94B613E0919604A7
:10078000F0919704908180919504892B808308953E
:10079000E0919604F0919704908180919504809562
:1007A000892380830895CF93DF931F92CDB7DEB75F
:1007B00041E050E0BE016F5F7F4F80E090E00E941B
:1007C000FC1589810F90DF91CF910895CF93DF932E
:1007D0001F92CDB7DEB7898341E050E0BE016F5F65
:1007E0007F4F80E090E00E9489160F90DF91CF91BB
:1007F00008958EBD00000DB407FEFDCF8EB508959F
:10080000DA0190919904E92FF0E0FE2FEE27E60F30
:10081000F71F90E0982F8827A901BD018E0F9F1F19
:100820000C948916CF93DF931F921F92CDB7DEB73A
:1008300079836A8322E030E0AE014F5F5F4F60E171
:1008400070E00E9400040F900F90DF91CF91089507
:10085000CF93DF931F921F92CDB7DEB779836A8360
:1008600022E030E0AE014F5F5F4F64E070E00E9435
:1008700000040F900F90DF91CF910895CF93DF93F5
:100880001F92CDB7DEB790919904292F30E0322F17
:100890002227260F371F90E0982F8827498341E0B1
:1008A00050E0BE016F5F7F4F820F931F0E94891639
:1008B0000F90DF91CF910895CF93DF931F92CDB723
:1008C000DEB790919904292F30E0322F2227260F8E
:1008D000371F90E0982F882741E050E0BE016F5FFE
:1008E0007F4F820F931F0E94FC1589810F90DF912B
:1008F000CF910895DA0190919904E92FF0E0FE2F4D
:10090000EE27E60FF71F90E0982F8827A901BD0179
:100910008E0F9F1F0C94FC157F928F929F92AF9227
:10092000BF92CF92DF92EF92FF920F931F93CF93DC
:10093000DF931F921F92CDB7DEB7782E8B014A014D
:10094000590122E030E0AE014F5F5F4F64E270E09A
:100950000E947A04E980FA80FE24EF24FE24E00E4F
:10096000F11E9701377040919804072D10E0C801DF
:10097000433311F4089601C04096982F8827990FA9
:10098000990F990F820F931F473319F4A501B401F2
:1009900020C0A9014A0D5B1D41305840B8F360E00A
:1009A00078E06B01C21AD30AA601B4010E9489162D
:1009B000A5014C195D09B4016C0D7D1D8091980451
:1009C000833339F5085F1F4F902F990F990F990FB7
:1009D00080E00E948916EA0CFB1CF982EA8222E080
:1009E00030E0AE014F5F5F4F64E270E0872D0E9400
:1009F00000040F900F90DF91CF911F910F91FF9006
:100A0000EF90DF90CF90BF90AF909F908F907F90AE
:100A10000895005F1F4FD8CFEF92FF921F93CF939F
:100A2000DF931F921F92CDB7DEB7182F22E030E080
:100A3000AE014F5F5F4F60E270E00E947A04E98090
:100A4000FA80FE24EF24FE2422E030E0AE014F5F66
:100A50005F4F60E270E0812F0E947A0489819A8161
:100A6000982789279827E816F90611F07C01ECCF22
:100A700087E0189FF0011124ED57F94FF582E482C9
:100A8000C7010F900F90DF91CF911F91FF90EF90D2
:100A90000895FF920F931F93CF93DF931F921F929E
:100AA000CDB7DEB7F82E22E030E0AE014F5F5F4FEA
:100AB00066E270E00E947A0409811A8110270127FA
:100AC000102722E030E0AE014F5F5F4F66E270E03A
:100AD0008F2D0E947A0489819A81982789279827E7
:100AE0000817190711F08C01ECCFC8010F900F9077
:100AF000DF91CF911F910F91FF90089508958CBDC4
:100B00009DBD0895FF920F931F93CF93DF931F9284
:100B10001F92CDB7DEB7F82ECE0101960E94FC0ED3
:100B200089819A810E947F058F2D0E940C058C017E
:100B300063E070E08F2D0E945C04873129F08C31D6
:100B400019F080E090E001C0C8010F900F90DF9194
:100B5000CF911F910F91FF900895FC0184858830FB
:100B600010F40C94820580E090E008951F93CF93D9
:100B7000DF931F921F92CDB7DEB7182FCE010196DB
:100B80000E94FC0E89819A810E947F05812F0E941C
:100B9000640227E0129FF0011124ED57F94F2281E2
:100BA0003381377041E050E0BE016F5F7F4F820FAD
:100BB000931F0E94FC1589810F900F90DF91CF91B8
:100BC0001F910895FC01808D883040F4218D328D75
:100BD000232B21F00E94B60590E008958FEF9FEF40
:100BE0000895CF93DF93FC012485283018F08FEF10
:100BF0009FEF0EC0EC010190F081E02D0084F185A3
:100C0000E02D1995892B99F38C850E94B60590E00B
:100C1000DF91CF910895FF920F931F93CF93DF93AE
:100C20001F921F92CDB7DEB7282F87E0289F800143
:100C300011240D57194FF80180819181009791F48B
:100C4000F22ECE0101960E94FC0E89819A810E94AB
:100C50007F058F2D0E944905F8012681821B91098D
:100C6000918380830F900F90DF91CF911F910F910F
:100C7000FF900895FC018485883010F40C940B06D5
:100C800080E090E008954F925F927F928F929F92C2
:100C9000AF92BF92CF92DF92EF92FF920F931F938A
:100CA000CF93DF931F921F92CDB7DEB7782E6B01E3
:100CB0004A01A82EB12C27E0829FC0011124AC016B
:100CC0004D57594F7A01FA0100811181CE010196E9
:100CD0000E94FC0E89819A810E947F0508151905E2
:100CE00054F4872D0E944905F70126818C01021BCF
:100CF00011091183008301151105A9F463E070E067
:100D0000872D0E945C04843109F480C0882309F493
:100D10007DC001E010E08C3111F400E010E011958D
:100D20000195110973C0801691060CF4840187E0C7
:100D30008A9DF0018B9DF00D1124ED57F94FE28053
:100D4000F380C114D10459F12701F7E05F22872D08
:100D50000E946402840D951D20919804273319F494
:100D6000A801B6011AC09801240D351D2130384064
:100D7000B8F320E038E0490184189508A401B601D1
:100D80000E94FC152601480C591C6801C818D90896
:100D9000872D0E946402A601B2010E94FC15E00E9C
:100DA000F11E87E08A9DF0018B9DF00D1124ED5717
:100DB000F94FF382E28280819181801B910B9183B4
:100DC00080832681A801420F511D4A3F510510F42E
:100DD000892BD9F487E08A9DF0018B9DF00D1124B9
:100DE000ED57F94F1682F982EA8222E030E0AE0137
:100DF0004F5F5F4F68E270E0872D0E94000460E45F
:100E000070E0872D0E94EC1501C04683C8010F9049
:100E10000F90DF91CF911F910F91FF90EF90DF9096
:100E2000CF90BF90AF909F908F907F905F904F90AA
:100E30000895CF93DF93FC01218D328D211531056B
:100E400019F48FEF9FEF11C0EC014217530708F020
:100E5000A901888D0E9443061816190694F7298D5A
:100E60003A8D281B390B3A8F298FDF91CF91089546
:100E70000F931F93CF93DF931F92CDB7DEB7FC0183
:100E8000218D328D232B61F08C0141E050E0BE01B9
:100E90006F5F7F4F808D0E944306181619061CF065
:100EA0008FEF9FEF08C0F801818D928D0197928F8F
:100EB000818F898190E00F90DF91CF911F910F91E9
:100EC00008950F931F93CF93DF93CDB7DEB7289785
:100ED0000FB6F894DEBF0FBECDBF8C01D801599676
:100EE0004D915C915A974115510551F0ED91FC914E
:100EF000048CF58DE02D60E070E0C8011995EECF0F
:100F0000F801808D0E940B06892B51F148E050E0DA
:100F1000BE016F5F7F4FD80158968C910E944306A7
:100F200018161906FCF4D801509684E0FE0131969B
:100F300001900D928A95E1F78D8190E0982F882796
:100F40002E81820F911DF801958B848B8F8190E00B
:100F5000982F88272885820F911D928F818F02C03C
:100F600080E090E028960FB6F894DEBF0FBECDBFAC
:100F7000DF91CF911F910F910895CF93DF931F922F
:100F8000CDB7DEB741E050E0BE016F5F7F4FFC019F
:100F900084850E944306181619061CF4898190E086
:100FA00002C08FEF9FEF0F90DF91CF910895FC016A
:100FB0008485883010F40C94430680E090E0089516
:100FC0001F93CF93DF931F921F92CDB7DEB7182FD9
:100FD000CE0101960E94FC0E89819A810E947F05B4
:100FE00068E070E0812F0E94EC150F900F90DF9168
:100FF000CF911F9108951F93CF93DF931F921F925C
:10100000CDB7DEB7182FCE0101960E94FC0E898164
:101010009A810E947F0560E170E0812F0E94EC15AB
:101020000F900F90DF91CF911F910895CF92DF9293
:10103000EF92FF920F931F93CF93DF9300D000D0D6
:10104000CDB7DEB78C016B017A01FC01808D883051
:1010500010F40E94FB0787EC92E09A838983F601E3
:1010600082819381A481B5818B839C83AD83BE8370
:10107000B701CE0101960E940919F801808F8830CE
:1010800030F4F586E486128E118E81E001C080E096
:1010900026960FB6F894DEBF0FBECDBFDF91CF917D
:1010A0001F910F91FF90EF90DF90CF900895CF9315
:1010B000DF93FC01808D883028F4EF010E94FB074C
:1010C00088E0888FDF91CF9108951F93CF93DF93AE
:1010D0001F921F92CDB7DEB7182FCE0101960E9446
:1010E000FC0E89819A810E947F0563E070E0812F68
:1010F0000E945C040F900F90DF91CF911F91089593
:10110000CF93DF93EC018C858830C8F40E9465088A
:10111000843181F0882371F0883161F08C3161F481
:10112000E881F9810084F185E02DCE01199521E057
:10113000892B19F420E001C021E0822F01C080E05A
:10114000DF91CF910895CF92DF92EF92FF92CF93EC
:10115000DF93EC018C85883038F50E94E0070E940F
:10116000E41A6B017C018C850E9465088823D1F00C
:1011700061E070E080E090E00E94AA1A0E94E41A08
:10118000AB01BC014C195D096E097F098D859E85F7
:10119000A0E0B0E0481759076A077B0720F38C8569
:1011A0000E94FB0788E08C87DF91CF91FF90EF9042
:1011B000DF90CF900895CF93DF93EC018C8588303A
:1011C00060F40E946508873111F08C3131F48C8510
:1011D0000E9482058115984088F3DF91CF91089590
:1011E000CF92DF92EF92FF920F931F93CF93DF93F3
:1011F000CDB7DEB7AF970FB6F894DEBF0FBECDBF49
:101200008C016B017A01CE0101960E947C1187EC62
:1012100092E09BA78AA71CA61DA61EA61FA6D80102
:101220001C968C91883060F40E946508882321F018
:10123000F80184850E94E00788E0D8011C968C9311
:101240008091FD059091FE05A091FF05B0910006EB
:101250008EA39FA3A8A7B9A78B839C83AD83BE83CE
:1012600018861F82AE01465D5F4FB601CE01019622
:101270000E94F01A0097C1F0D801ED91FC9106840C
:10128000F785E02D87EC92E09DA38CA38CA59DA50E
:10129000AEA5BFA58EA39FA3A8A7B9A7A701BE010E
:1012A0006C5D7F4FC8011995AF960FB6F894DEBFFD
:1012B0000FBECDBFDF91CF911F910F91FF90EF90A7
:1012C000DF90CF9008958F929F92BF92CF92DF923E
:1012D000EF92FF920F931F93CF93DF93CDB7DEB7BB
:1012E0002A970FB6F894DEBF0FBECDBF9091980439
:1012F000911102C088E08DC0933319F028E0B22E1E
:1013000002C094E0B92E6B01082FCE0101960E9415
:10131000FC0E89819A810E947F059E012F5F3F4FBD
:101320007901490110E063E070E0812F0E945C04C4
:10133000F40181934F018823B9F01F5FB112F3CFFD
:1013400010E0F70191917F019D3149F0983139F01A
:101350009A51923020F01F5FB112F3CFCBCF60E1F2
:1013600070E0812F0E94EC15E12EF12C83EE93E0CA
:101370000197F1F7402F60E070E0812F0E943E045A
:101380004FEF62E070E0812F0E943E04C114D1044F
:1013900011F0B60113C080910E0290910F020196D8
:1013A0008115F0EC9F0710F480E090EC90930F0211
:1013B00080930E0260910E0270910F02812F0E94A5
:1013C000280461E070E0812F0E94EC1527E02E9D3B
:1013D000C0012F9D900D11249C012D57394F79018B
:1013E000F9011182108222E030E0AE01475F5F4FC9
:1013F00068E270E0812F0E947A0489859A85982797
:1014000089279827F7019383828316821582148295
:10141000812F2A960FB6F894DEBF0FBECDBFDF91A5
:10142000CF911F910F91FF90EF90DF90CF90BF90E1
:101430009F908F9008950F931F93CF93DF93EC01AC
:101440008B01888D883010F40E94FB07B80182E080
:101450000E946309888F883030F41D870C871A8EAC
:10146000198E81E001C080E0DF91CF911F910F9133
:1014700008957F928F929F92AF92BF92CF92DF9208
:10148000EF92FF920F931F93CF93DF931F921F92C0
:10149000CDB7DEB77C014B01742EC52EFC01A688AA
:1014A000B788D08CCE0101960E94FC0E89819A816A
:1014B0000E947F058D2D0E940C05072D1C2D801785
:1014C000910708F48C019801A401B5018D2D0E94AB
:1014D0008C04F70186899789800F911F978B868BE3
:1014E000C8010F900F90DF91CF911F910F91FF9046
:1014F000EF90DF90CF90BF90AF909F908F907F90B4
:1015000008951F93CF93DF931F921F92CDB7DEB73D
:10151000FC01108DCE0101960E94FC0E89819A81FA
:101520000E947F0560E270E0812F0E94EC1562E06E
:1015300070E0812F0E945C0484FD18C062E070E0BE
:10154000812F0E945C0483FF08C048E162E070E0E4
:10155000812F0E943E0480E010C0CE0101960E94BF
:10156000FC0E89819A810E947F05E1CF40E162E013
:1015700070E0812F0E943E0481E090E00F900F9078
:10158000DF91CF911F910895DF92EF92FF920F9319
:101590001F93CF93DF931F921F92CDB7DEB7FB014E
:1015A000DC0157961C921E9256972281211109C088
:1015B0002381211106C02481211103C0258122230A
:1015C000F9F041155105E1F07A018F01FC01D08C51
:1015D000CE0101960E94FC0E89819A810E947F05AE
:1015E000A8014E5F5F4F24E030E06CE070E08D2D8D
:1015F0000E940004B7018D2D0E94120481E001C0F9
:1016000080E090E00F900F90DF91CF911F910F91AC
:10161000FF90EF90DF9008950F931F93CF93DF9388
:101620001F921F92CDB7DEB7FC0124852830D0F47D
:101630008C01CE0101960E94FC0E89819A810E9444
:101640007F0522E030E0AE014F5F5F4F60E170E068
:10165000F80184850E947A0489819A8198278927D4
:10166000982702C080E090E00F900F90DF91CF911B
:101670001F910F910895EF92FF920F931F93CF93B5
:10168000DF9300D01F92CDB7DEB78C017B01FB0149
:101690008485883050F087EC92E0F8019183808354
:1016A000128213821482158220C0CE0101960E94FC
:1016B000FC0E89819A810E947F0524E030E0AE0112
:1016C0004F5F5F4F6CE070E0F70184850E947A0401
:1016D00087EC92E0F8019183808389819A81AB81C4
:1016E000BC8182839383A483B583C8010F900F903C
:1016F0000F900F90DF91CF911F910F91FF90EF907E
:1017000008950F931F93CF93DF931F921F92CDB72E
:10171000DEB7FC0124852830D0F48C01CE0101967F
:101720000E94FC0E89819A810E947F0522E030E0B0
:10173000AE014F5F5F4F64E070E0F80184850E9466
:101740007A0489819A8198278927982702C080E0A6
:1017500090E00F900F90DF91CF911F910F9108951E
:101760006F927F928F929F92AF92BF92CF92DF92B1
:10177000EF92FF921F93CF93DF931F921F92CDB7EB
:10178000DEB7FC011485183008F061C06A014130F1
:10179000F8E05F0718F0C12C28E0D22E7A013B0157
:1017A0005C01CE0101960E94FC0E89819A810E9403
:1017B0007F05812F0E940C054C0163E070E0812FB2
:1017C0000E945C04873111F08C3121F48C149D044B
:1017D00040F302C0C12CD12CCE0101960E94FC0E18
:1017E00089819A810E947F059601A30160E070E0E3
:1017F000812F0E948C0460E270E0812F0E94EC1522
:1018000062E070E0812F0E945C0484FD16C063E0FA
:1018100070E0812F0E945C04811106C081E090E09D
:10182000F5019383828313C0CE0101960E94FC0EC2
:1018300089819A810E947F05E3CF40E162E070E0F8
:10184000812F0E943E04CD2849F3C70102C080E0E9
:1018500090E00F900F90DF91CF911F91FF90EF904C
:10186000DF90CF90BF90AF909F908F907F906F90C0
:101870000895AF92BF92CF92DF92EF92FF920F93B3
:101880001F93CF93DF931F921F92CDB7DEB78C01CA
:101890006B015A01FC018485883058F40E94650868
:1018A000882321F0F80184850E94E00788E0F80190
:1018B0008487F60182819381A481B5810097A10577
:1018C000B10509F45BC08F3F9F4FAF4FBF4F09F485
:1018D00055C060E070E081E20E946309F82EF801D3
:1018E0008487F7E0F81708F449C0CE0101960E94FA
:1018F000FC0E89819A810E947F05A6014E5F5F4F91
:1019000024E030E06CE070E08F2D0E940004B5010F
:101910008F2D0E94120464E070E08F2D0E94EC1560
:101920000E94E41A6B017C01F80184850E9465081D
:10193000873139F18C3129F1882301F10E94E41AB1
:10194000AB01BC014C195D096E097F09F801858561
:101950009685A0E0B0E084179507A607B70738F092
:1019600061E070E080E090E00E94AA1ADDCFF8010B
:1019700084850E94FB0788E0F801848780E090E07E
:1019800002C081E090E00F900F90DF91CF911F9106
:101990000F91FF90EF90DF90CF90BF90AF900895A0
:1019A0002F923F924F925F926F927F928F929F926F
:1019B000AF92BF92CF92DF92EF92FF920F931F935D
:1019C000CF93DF93CDB7DEB72A970FB6F894DEBF7B
:1019D0000FBECDBF1C0180910706909108060E94A2
:1019E0009918811140C03BC07801CE0101960E9438
:1019F00099188823A1F187010F5F1F4F8981E0911A
:101A00000706F0910806EE0DFF1D8083E981AE2FD9
:101A1000AF77B0E0A30192010E946328860E971E63
:101A2000A81EB91E37E0440C551C661C771C3A955D
:101A3000D1F7E7FF29C005301105B1F68FEF9FEF11
:101A400090932906809328068091050690910606BA
:101A5000DC01ED91FC910488F589E02D199560E099
:101A600070E0CB01D7C0E0910706F0910806D08066
:101A70001982EE24E394F12C812C912C5401412CF9
:101A8000512C32014394B1CFBD2DB07FBE838FEF77
:101A9000800FF1018083B03381F58091070690912A
:101AA0000806800F911F0E9499188823C1F2209187
:101AB000070630910806C7010296820F931F0E9405
:101AC0009918882361F20E5F1F4FE0910706F0918D
:101AD0000806D1018C91DF01A80FB11D11968C91E0
:101AE000119790E0982F882712962C91820F911DC4
:101AF000208121FF09C0029607C0F0E0E0E030E05D
:101B000020E080E090E004C0F2E0E0E030E020E09F
:101B1000A80160E070E0CF2EDE2EE32EF22E2A0127
:101B20003B014C185D086E087F084A825B826C821C
:101B30007D822C01612C712C4F82588669867A86B1
:101B40004A805B806C807D804C0C5D1C6E1C7F1C11
:101B5000C814D904EA04FB0408F046C0CE0101967B
:101B60000E949918882309F47ACF809126069091D3
:101B70002706009711F12E812033F9F4D1012C9121
:101B80004EEF5FEF6FEF7FEF421B51096109710963
:101B9000440E551E661E771E2F81388549855A854D
:101BA000241535054605570540F4DC01ED91FC91FF
:101BB0000190F081E02D698119958091090690913D
:101BC0000A060817190750F48981E0910706F09179
:101BD0000806E00FF11F80830F5F1F4FBFEFCB1A86
:101BE000DB0AEB0AFB0AACCF809126069091270610
:101BF000892B69F48091090690910A06A0E0B0E073
:101C000084159505A605B70510F400E010E0B801AD
:101C100080E090E02A960FB6F894DEBF0FBECDBFED
:101C2000DF91CF911F910F91FF90EF90DF90CF90B8
:101C3000BF90AF909F908F907F906F905F904F90EC
:101C40003F902F900895CF93DF93EB01BC018CE47C
:101C500095E00E94B613CD2B19F06BE474E002C03E
:101C60006FE474E08CE495E0DF91CF910C945F1702
:101C7000909104059111FCCF91E09093040590930D
:101C800003052FEF2093020510920105260F2093E4
:101C900000059093FF049091FF04880F892B809397
:101CA000FF048091FE04813061F41092FE04809163
:101CB000FF048093BB008091BC0083FDF8CF85ECCE
:101CC00001C085EE8093BC00809104058130E1F372
:101CD00080910105861710F460910105AEEDB4E026
:101CE000EEEBF4E080E0861721F09D9191938F5FF9
:101CF000FACF0895282F3091BD04313208F04AC040
:101D0000809104058111FCCF9091BC0442E0409386
:101D10000405209303052FEF20930205109201057F
:101D200030930005ECE9F4E0AEEDB4E020E03217CA
:101D300021F041914D932F5FFACF1092FF04209133
:101D4000FF04990F922B9093FF049091FE04913021
:101D500061F41092FE049091FF049093BB00909167
:101D6000BC0093FDF8CF95EC01C095EE9093BC00BC
:101D7000909104059230E1F3909102059F3F79F034
:101D800080910205803241F080910205803331F06C
:101D900084E005C081E003C082E001C083E01092CE
:101DA0009B041092BD0410929A040895CF93DF9380
:101DB000282F30E0F901E250FC4F8491F901E854FA
:101DC000FC4FD491F901EE58FC4FC491CC2389F01B
:101DD00081110E94EF19EC2FF0E0EE0FFF1FE85A7F
:101DE000FC4FA591B4918FB7F894EC91ED2BEC9347
:101DF0008FBFDF91CF91089520E5FC01208321E082
:101E000021830895CF92DF92EF92FF920F931F9359
:101E1000CF93DF93CDB7DEB7C654D1090FB6F89490
:101E2000DEBF0FBECDBFFC0182819381A481B5814D
:101E300023968CAF9DAFAEAFBFAF239721E0239623
:101E40002FAF239723964CAD5DAD6EAD7FAD23973D
:101E50004BAB5CAB6DAB7EAB89AF9AAFABAFBCAFFE
:101E60008DA79EA7AFA7B8AB28AB4DA55EA56FA564
:101E700078A94FA358A769A77AA72EAB4BA95CA94D
:101E80006DA97EA949A35AA36BA37CA38B8F9C8FBA
:101E9000AD8FBE8F47EC52E05C8B4B8B3FEF3D8BA1
:101EA0003E8B3F8B188E5E874D872AA7CFA0D8A484
:101EB000E9A4FAA4CF86D88AE98AFA8A2CA309A1D0
:101EC0001AA12BA13CA109871A872B873C875A832B
:101ED00049838B839C83AD83BE83809108058111E8
:101EE0000CC160E372E080E090E00E94AA1A1FB784
:101EF000F89480910705811126C0E7EAF3E0849108
:101F0000EDEEF3E09491E82FF0E0EE0FFF1FE25CBE
:101F1000FC4FA591B491EC91E92319F485E30E945B
:101F2000D60E61E085E30E946E1A8CB580618CBD8F
:101F30008CB580648CBD61E084E30E946E1A61E020
:101F400083E30E946E1A809107058F5F80930705D7
:101F50001FBFECE7F3E0E491F0E0EE0FFF1FE85A5B
:101F6000FC4F859194919093970480939604E2ECB2
:101F7000F3E0E491E093950461E08AE00E946E1A38
:101F80000E94BE03CE018D5B9F4F0E94FC0E2596E2
:101F90008EAD9FAD25970E947F0584E380939804C2
:101FA0000E944617882319F188E00E94E6030E94E8
:101FB000D3038830E1F480E10E94E6030E94D3035A
:101FC0008031A9F480E00E94E6030E94D3038111CE
:101FD0000EC041E050E0BE016D5B7F4F8FE190E0AD
:101FE0000E94FC1524968FAD24978330A1F187E3DE
:101FF000809398040E944617882309F440C088E023
:102000000E94E6030E94D3038830C9F580E10E9454
:10201000E6030E94D303182F803189F580E00E94E7
:10202000E6030E94D30381112AC041E050E0BE01C3
:102030006D5B7F4F89E390E00E94FC1524968FAD85
:1020400024978430E1F4109399040E947E0581E086
:102050008093080552C080E48093990410E042E028
:102060006EE170E0812F0E943E0442E06FE170E07B
:10207000812F0E943E041F5F183089F7E6CF83E36B
:10208000809398040E944617882391F180E10E9472
:10209000E6030E94D303803159F582E10E94E603F2
:1020A0000E94D303823121F580E00E94E6030E9462
:1020B000D30381111DC084E08093990415E5279610
:1020C0001FAF279741E050E0BE016A5B7F4F8BE175
:1020D00090E00E94891626961FAF269741E050E0B7
:1020E000BE016B5B7F4F8AE190E00E948916ADCF05
:1020F000109298040E947E053EC0CE018D5B9F4FDA
:102100000E94FC0E25968EAD9FAD25970E947F05FF
:1021100046E050E068E072E089E090E00E948916B5
:1021200044E050E0BE016D5F7F4F8FE090E00E9481
:10213000891644E050E0BE01615F7F4F81E090E08E
:102140000E94891644E050E0BE016B5E7F4F85E03F
:1021500090E00E9489160E947E0581E08C87898527
:102160009A85AB85BC858093FD059093FE05A09371
:10217000FF05B0930006CA5BDF4F0FB6F894DEBFD1
:102180000FBECDBFDF91CF911F910F91FF90EF90C8
:10219000DF90CF900895CF93DF93E1E0F6E0EC017C
:1021A0008A819B81AC81BD81858F968FA78FB0A3DB
:1021B0008BE597E094A383A312A211A2CF01DF9134
:1021C000CF9108958F929F92AF92BF92CF92DF925C
:1021D000EF92FF92CF9391E090939A0490E49093C2
:1021E000BC0410929B041092BD04A0910505B0910F
:1021F0000605ED91FC9111970190F081E02D682F7B
:10220000CD01199581E00E947A0ECAE06AE070E083
:1022100080E090E00E94AA1A63E080E40E94380EF9
:102220001092940480939304C15009F456C08330F3
:1022300069F78091050590910605DC01ED91FC910F
:102240000284F385E02D1995D82E80910505909193
:102250000605DC01ED91FC910284F385E02D1995D2
:10226000C82F8091050590910605DC01ED91FC9148
:102270000284F385E02D1995FD2CE12C97012C2B80
:10228000A90160E070E0762F652F542F4427482B7A
:1022900087E190E0C12CE0E8DE2EE8E9EE2EF12C9B
:1022A0004A015B01082E04C0B694A79497948794C2
:1022B0000A94D2F780FE04C04C255D256E257F254B
:1022C000F694E794D794C79401978730910541F726
:1022D000411106C0C9018C7F05C086EE93E002C0A3
:1022E00087EE93E0CF91FF90EF90DF90CF90BF907B
:1022F000AF909F908F900895FC0187EC92E09183BE
:10230000808312821382148215821386128648EE0D
:1023100053E060E070E0448755876687778721E265
:1023200032E031872087978B868B108E118E128E2C
:10233000138E88E080A30895CF92DF92EF92FF92F0
:102340000F931F93CF93DF936C017A018B01C0E051
:10235000D0E0CE15DF0581F0D8016D918D01D60159
:10236000ED91FC910190F081E02DC6011995892B2A
:1023700011F02196EECF7E01C701DF91CF911F9121
:102380000F91FF90EF90DF90CF900895FC01538D57
:10239000448D252F30E0842F90E0821B930B54173F
:1023A00010F0CF96089501970895FC01918D828DCC
:1023B000981761F0828DDF01A80FB11D5D968C9199
:1023C000928D9F5F9F73928F90E008958FEF9FEFA4
:1023D0000895FC01918D828D981731F0828DE80F60
:1023E000F11D858D90E008958FEF9FEF0895FC011A
:1023F000918D228D892F90E0805C9F4F821B9109E7
:102400008F73992708958CE495E00E94F71121E0DD
:10241000892B09F420E0822F0895FC01848DDF01CF
:10242000A80FB11DA35ABF4F2C91848D90E0019647
:102430008F739927848FA689B7892C93A089B18936
:102440008C91837080648C93938D848D981306C0D7
:102450000288F389E02D80818F7D80830895EF923B
:10246000FF920F931F93CF93DF93EC0181E0888F4E
:102470009B8D8C8D981305C0E889F989808185FD35
:1024800026C0F62E0B8D10E00F5F1F4F0F73112724
:10249000E02E8C8DE8120CC00FB607FCFACFE8894D
:1024A000F989808185FFF5CFCE010E940D12F1CF11
:1024B0008B8DFE01E80FF11DE35AFF4FF0829FB7AD
:1024C000F8940B8FEA89FB89808180620AC09FB7EC
:1024D000F894EE89FF896083E889F98980818370A7
:1024E000806480839FBF81E090E0DF91CF911F9156
:1024F0000F91FF90EF900895CF93DF93EC01888DBB
:102500008823C9F0EA89FB89808185FD05C0A889F7
:10251000B9898C9186FD0FC00FB607FCF5CF80817D
:1025200085FFF2CFA889B9898C9185FFEDCFCE01C7
:102530000E940D12E7CFDF91CF91089580E090E0E7
:10254000892B21F00E940312811125C080E090E0C8
:10255000892B41F080E090E0892B21F00E9400005F
:1025600081111CC080E090E0892B41F080E090E078
:10257000892B21F00E940000811113C080E090E0BF
:10258000892BA1F080E090E0892B81F00E9400006F
:1025900081110AC008950E940000D8CF0E94000057
:1025A000E1CF0E940000EACF0C940000089585ED71
:1025B0008093BC008091BC0084FDFCCF1092040588
:1025C000089540912905262F30E0240F311D213236
:1025D0003105DCF4209104052430C9F4FC0180E0CD
:1025E00090E0861758F4309129052191DC01A75F0E
:1025F000BA4FA30FB11D2C930196F3CF80912905FB
:10260000680F6093290580E0089581E0089582E0D5
:102610000895089508950895E09194048091930495
:10262000E81730F4F0E0E254FB4F808190E0089529
:102630008FEF9FEF089590919404809193049817E1
:1026400050F4E92FF0E0E254FB4F208130E09F5F2F
:102650009093940402C02FEF3FEFC9010895809139
:10266000930490E020919404821B91090895CF92E5
:10267000DF92EF92FF920F931F93CF93DF937C0132
:10268000CB018A0120919A04222389F0EB016B018E
:10269000C40ED51ECC15DD0569F06991D701ED9109
:1026A000FC910190F081E02DC7011995F3CF642FC3
:1026B0000E94E112C801DF91CF911F910F91FF900D
:1026C000EF90DF90CF900895CF93DF931F92CDB717
:1026D000DEB7698320919A042223D1F02091BD04B2
:1026E000203240F021E030E0FC013383228380E09F
:1026F00090E015C080919B04E82FF0E0E456FB4F7A
:10270000998190838F5F80939B048093BD0405C063
:1027100061E0CE0101960E94E11281E090E00F900D
:10272000DF91CF910895FC0120812EBD9B012150A6
:10273000310941F051810DB407FEFDCF4EB55EBDAC
:102740004193F5CF61507109FC01E60FF71F0DB4FD
:1027500007FEFDCF8EB5808308950E940B2CDC010F
:10276000ED91FC910190F081E02D199461157105B6
:1027700079F0FB0101900020E9F73197AF01461B8A
:10278000570BDC01ED91FC910280F381E02D19944F
:1027900080E090E008958F929F92AF92BF92EF9267
:1027A000FF920F931F93CF93DF93CDB7DEB7A1971F
:1027B0000FB6F894DEBF0FBECDBF7C01FA01CB018E
:1027C00019A2223008F42AE08E010F5D1F4F822EDD
:1027D000912CA12CB12CBF01A50194010E946E285F
:1027E000F901CA01015011096A3014F4605D01C099
:1027F000695CD8016C93232B242B252B61F7B8013E
:10280000C7010E94B613A1960FB6F894DEBF0FBEA3
:10281000CDBFDF91CF911F910F91FF90EF90BF90AF
:10282000AF909F908F9008958F929F92AF92BF929A
:10283000CF92DF92EF92FF920F931F93CF93DF938C
:102840007C018B016C0182E0C80ED11C4701E5E0E0
:102850008E0E911CC0E0D0E0F60141916F0150E076
:1028600060E070E02AE0C8010E94CB135C016EE2D8
:10287000C8010E94AF138A0D9B1DC80FD91FC81431
:10288000D90451F7F701458150E060E070E02AE09B
:10289000C8010E94CB138C0F9D1FDF91CF911F9118
:1028A0000F91FF90EF90DF90CF90BF90AF909F90EF
:1028B0008F9008951F920F920FB60F9211240BB6AE
:1028C0000F922F933F934F935F936F937F938F93C9
:1028D0009F93AF93BF93EF93FF938CE495E00E9497
:1028E0000D12FF91EF91BF91AF919F918F917F91C9
:1028F0006F915F914F913F912F910F900BBE0F9071
:102900000FBE0F901F9018951F920F920FB60F9247
:1029100011240BB60F922F938F939F93EF93FF93F6
:10292000E0915C05F0915D058081E0916205F09198
:10293000630582FD12C09081809165058F5F8F7362
:1029400020916605821751F0E0916505F0E0E45BA7
:10295000FA4F958F8093650501C08081FF91EF91BB
:102960009F918F912F910F900BBE0F900FBE0F90E4
:102970001F9018951F920F920FB60F9211240BB64D
:102980000F922F933F934F935F936F937F938F9308
:102990009F93AF93BF93EF93FF938091B900887F8C
:1029A000803609F49CC068F5883209F45BC090F465
:1029B000803109F454C038F4882309F4F6C0883013
:1029C00009F44DC0F6C0883109F44CC0803209F4D6
:1029D0005DC0EFC0803409F468C048F4803309F466
:1029E00055C0883309F0E5C080930205D8C0803512
:1029F00009F44FC0883509F45DC0883409F0D9C0A6
:102A0000D6C0883909F4C7C0A8F4883709F467C06C
:102A100038F4883609F463C0803709F460C0C9C04F
:102A2000883809F4B8C0803909F45FC0803809F0EB
:102A3000C0C05BC0803B09F486C038F4803A09F41A
:102A400066C0883A09F47FC0B4C0803C09F4A7C0CE
:102A5000883C09F4A4C0883B09F48AC0AAC08091CC
:102A6000FF0410C09091010580910005981770F542
:102A7000E091010581E08E0F80930105F0E0E252C4
:102A8000FB4F80818093BB0085EC86C0809302055C
:102A90008EC0E091010581E08E0F80930105809149
:102AA000BB00F0E0E252FB4F8083909101058091E2
:102AB00000056EC0E091010581E08E0F8093010555
:102AC0008091BB00F0E0E252FB4F808380910305D0
:102AD00081116DC081E08093FE0484EA61C083E0CF
:102AE0008093040510924B05CFCF80914B05803227
:102AF00008F051C0E0914B0581E08E0F80934B05AB
:102B00008091BB00F0E0E55DFA4F8083BDCF85EC9E
:102B10008093BC001092040580914B05803230F404
:102B2000E0914B05F0E0E55DFA4F108260914B05B6
:102B300070E0E0915204F09153048BE295E0199516
:102B400010924B0536C084E08093040510922A054C
:102B500010922905E0915404F09155041995809143
:102B60002905811105C081E080932905109209058E
:102B7000E0912A0581E08E0F80932A05F0E0E75F5F
:102B8000FA4F80818093BB0090912A05809129059E
:102B9000981708F479CF85E88093BC000AC085ECCB
:102BA0008093BC001092040504C0109202050E949C
:102BB000D712FF91EF91BF91AF919F918F917F912C
:102BC0006F915F914F913F912F910F900BBE0F909E
:102BD0000FBE0F901F901895CF93C82F462F61E01E
:102BE00070E00E943E0461E070E08C2F0E945C0463
:102BF0008111F9CFCF910895AF92BF92CF92DF921A
:102C0000EF92FF920F931F93CF93DF9300D01F9209
:102C1000CDB7DEB78C016B017A01809198048333C4
:102C2000F1F45B016801C40ED51E0C151D0509F4F5
:102C300060C00E94C8038FE00E94F903812F0E94A8
:102C4000F903802F0E94F9030F5F1F4F80E00E945D
:102C5000F903F50181935F010E94BE03E6CF84333F
:102C6000F1F40E94C80319830A838F2D8F778B8319
:102C7000EC8264E070E0CE0101960E949313A701FC
:102C800060E070E0C6010E94222CE114F10421F002
:102C9000B701C6010E9493130E94BE032AC00E947E
:102CA000C8030F3F110509F020F419820A831B8223
:102CB0001DC017FD0BC019820A8333E016950795D6
:102CC0003A95E1F7007E08600B8310C0C80126E04A
:102CD000969587952A95E1F719830A83807E0115D9
:102CE000104C10F4806101C088618B8363E070E058
:102CF000C2CFC7010F900F900F900F90DF91CF912F
:102D00001F910F91FF90EF90DF90CF90BF90AF9009
:102D10000895AF92BF92CF92DF92EF92FF920F93FE
:102D20001F93CF93DF93CDB7DEB728970FB6F894F4
:102D3000DEBF0FBECDBF8C017B016A01809198047C
:102D40008333E1F45801A40EB51E0A151B0509F4DE
:102D50008BC00E94C80380EF0E94F903812F0E945C
:102D6000F903802F0E94F9030F5F1F4FF701819134
:102D70007F010E94F9030E94BE03E7CF843321F54F
:102D80000E94C80319830A838D2D80688B83CC82AF
:102D900064E070E0CE0101960E94931387010C0D50
:102DA0001D1DE016F10669F0F70181917F010E9477
:102DB000F903F7CFB6016D5F7F4FCE0101960E94F8
:102DC00093130E94BE0350C00E94C8030F3F110519
:102DD00009F020F419820A8384E01CC017FD0BC09F
:102DE00019820A8333E0169507953A95E1F7007E3C
:102DF0000C600B8310C0C80126E0969587952A9534
:102E0000E1F719830A83807E0115104C10F4846168
:102E100001C08C618B8326E0C216D10498F420E0B7
:102E2000822F90E08C159D0528F6E4E0F0E0EC0F91
:102E3000FD1FE80FF91FD701A80FB91F8C918083E0
:102E40002F5FEECF63E070E0CE0101960E949313F6
:102E500087010C0D1D1DF70181917F010E94F9036F
:102E6000E016F106C1F7ADCFC60128960FB6F8946B
:102E7000DEBF0FBECDBFDF91CF911F910F91FF90AD
:102E8000EF90DF90CF90BF90AF900895CF93DF93F6
:102E900080E80E94E603C4E1D0E00E94D3038823C7
:102EA00051F061E070E080E090E00E94AA1A219762
:102EB000A1F780E001C081E0DF91CF9108950F93E9
:102EC0001F93CF93DF93EC010E94B6138C016AEE3F
:102ED00072E0CE010E94B613800F911FDF91CF9157
:102EE0001F910F910895CF93DF93EC01FA01329671
:102EF000E60FF71FDC01AD014C1B5D0BCF01861BFC
:102F0000970B2D91222311F02193F5CF9C01241BC7
:102F1000350B620F731FFB0132975083319640834C
:102F2000DF91CF910895EF92FF920F931F93CF936C
:102F3000DF9300D01F92CDB7DEB77B01BA0130E03E
:102F4000962F9F77660F672F661F770B7195611518
:102F5000710509F0906821E0230FE1E0F0E0EC0F4B
:102F6000FD1FE30FF11D90836115710511F0322FE4
:102F7000E7CF30E0B701621B730B6C5F7F4FDB0163
:102F80008C93DE011196F701E21BF30B359685E079
:102F9000E80EF11CEE16FF0619F08D918193FACF21
:102FA00080910506909106062F5F3F4F8901040F1F
:102FB000151FDC01ED91FC910280F381E02DA80149
:102FC00019957C010E94E41A609311067093120611
:102FD000809313069093140681E00E151F0509F0E7
:102FE00080E00F900F900F900F90DF91CF911F9185
:102FF0000F91FF90EF90089580910506909106063D
:10300000009779F1DC01ED91FC910688F789E02DBC
:103010001995209128063091290681111FC0232B74
:1030200001F58DEF9FEF90932906809328068091FC
:10303000050690910606DC01ED91FC910680F78172
:10304000E02D19958091050690910606DC01ED9121
:10305000FC910488F589E02D199503C081E0232BAC
:1030600009F080E00895CF92DF92EF92FF920F93E4
:103070001F93CF93DF937C01EB01209749F0609180
:10308000090670910A06CE010E9409268C0102C031
:1030900000E010E00E94FC17882309F440C0C090B3
:1030A0000906D0900A06B601C7010E9409269801B8
:1030B000295F3F4F820F931FC816D90680F1609198
:1030C00007067091080645E050E0C7010E9473179B
:1030D0007E01E00EF11EFE01EC01CE1BDF0B9E0116
:1030E0002E0F3F1F6091070670910806EE15FF0531
:1030F00031F04191DB01A20FB31F4C93F0CF05508B
:103100001109A801480F591F80E3DF91CF911F914A
:103110000F91FF90EF90DF90CF900C94931780E089
:10312000DF91CF911F910F91FF90EF90DF90CF90A3
:1031300008958F929F92AF92BF92CF92DF92EF92BB
:10314000FF92CF93DF93EC010E94E41A4B015C01E4
:103150008091050690910606DC01ED91FC910084BA
:10316000F185E02D1995892BB9F40E94E41A20917C
:103170000D0630910E066B017C01C818D908EA08CB
:10318000FB08A8EEB3E00E949028C616D706E80612
:10319000F906F0F280E00DC08091050690910606D8
:1031A000DC01ED91FC910284F385E02D1995888373
:1031B00081E0DF91CF91FF90EF90DF90CF90BF90B3
:1031C000AF909F908F9008953FB7F8948091D0066C
:1031D0009091D106A091D206B091D30626B5A89BB6
:1031E00005C02F3F19F00196A11DB11D3FBFBA2F99
:1031F000A92F982F8827820F911DA11DB11DBC01F9
:10320000CD0142E0660F771F881F991F4A95D1F7BD
:1032100008958F929F92AF92BF92CF92DF92EF92DA
:10322000FF920F931F93CF93DF93CDB7DEB76097D5
:103230000FB6F894DEBF0FBECDBF7C01909198040D
:10324000992309F4B8C0933311F008E001C004E0F9
:103250005B01CE0101960E94FC0E89819A810E9439
:103260007F059E012F5F3F4F6901490110E063E038
:1032700070E0812F0E945C04F40181934F01882348
:10328000C9F01F5F0113F3CF10E0F60181916F01C8
:103290008D3159F0883149F08A51823030F01F5F0A
:1032A0000113F3CF0E947E0586C060E170E0812F9C
:1032B0000E94EC15C12ED12C83EE93E00197F1F71B
:1032C00042E860E070E0812F0E943E044FEF62E030
:1032D00070E0812F0E943E04A114B10411F0B501E9
:1032E00013C080910E0290910F0201968115F0ECAF
:1032F0009F0710F480E090EC90930F0280930E02F1
:1033000060910E0270910F02812F0E94280486E0C6
:10331000EFECF2E0DE01199601900D928A95E1F74B
:10332000F70183818F778C8784818D8785818E8754
:10333000A7014E5F5F4F24E030E06CE070E0812F2A
:103340000E940004B501812F0E94120426E030E0A3
:10335000AE01475F5F4F66E070E0812F0E9400047E
:1033600061E070E0812F0E94EC1527E02C9DC001E8
:103370002D9D900D11249C012D57394F7901F90194
:103380001182108222E030E0AE01415F5F4F68E2BF
:1033900070E0812F0E947A048F8598899827892769
:1033A0009827F701938382831682158214820E94E4
:1033B0007E05812F01C088E060960FB6F894DEBFCD
:1033C0000FBECDBFDF91CF911F910F91FF90EF9076
:1033D000DF90CF90BF90AF909F908F90089590E036
:1033E000FC013197E231F10508F04EC08827EE5814
:1033F000FF4F8F4F0C949F28809180008F7703C0E0
:10340000809180008F7D809380000895809180005E
:10341000877FF9CF84B58F7702C084B58F7D84BD57
:1034200008958091B0008F7703C08091B0008F7DA8
:103430008093B0000895809190008F7707C08091AD
:1034400090008F7D03C080919000877F80939000D3
:1034500008958091A0008F7707C08091A0008F7D94
:1034600003C08091A000877F8093A0000895809181
:1034700020018F7707C0809120018F7D03C080914C
:103480002001877F809320010895CF93DF93282F19
:1034900030E0F901E250FC4F8491F901E854FC4F0F
:1034A000D491F901EE58FC4FC491CC2391F08111D5
:1034B0000E94EF19EC2FF0E0EE0FFF1FEC5BFB4FCB
:1034C000A591B491EC91ED2381E090E021F480E0AE
:1034D00002C080E090E0DF91CF910895CF93DF9319
:1034E00090E0FC01E854FC4F2491FC01EE58FC4FA5
:1034F0008491882361F190E0880F991FFC01E25CC0
:10350000FC4FC591D491FC01E85AFC4FA591B491B0
:10351000611109C09FB7F894888120958223888320
:10352000EC912E230BC0623061F49FB7F894888130
:10353000322F309583238883EC912E2B2C939FBFC1
:1035400006C08FB7F894E8812E2B28838FBFDF91B8
:10355000CF9108958F929F92AF92BF92CF92DF92B8
:10356000EF92FF926B017C010E94E4184B015C0119
:10357000C114D104E104F104F1F00E94E418DC016B
:10358000CB0188199909AA09BB09883E9340A10576
:10359000B10570F321E0C21AD108E108F10888EE04
:1035A000880E83E0981EA11CB11CC114D104E10453
:1035B000F10419F7DDCFFF90EF90DF90CF90BF902F
:1035C000AF909F908F9008952FB7F8946091CC069C
:1035D0007091CD068091CE069091CF062FBF0895B1
:1035E0004F925F926F927F928F929F92AF92BF9213
:1035F000CF92DF92EF92FF920F931F93CF93DF93BF
:10360000CDB7DEB763970FB6F894DEBF0FBECDBF60
:103610007C015B013A01FB0120E080E090E06AE080
:103620003191332309F140ED430F4A3080F4689F14
:10363000A001699F500D1124CA01C097830F911DED
:1036400037FD9A958F3F910559F350F313C03E32E1
:1036500089F4233079F0D301A20FB11D12968C9317
:103660002F5F80E090E0DCCF233021F4F3018583ED
:1036700081E021C0F701428153816481758180918D
:10368000F7059091F805A091F905B091FA05481752
:1036900059076A077B0709F491C10E94E41A870160
:1036A000085F1F4F6F7077277C5FC8010E941B0A5D
:1036B000813019F080E090E0D9C187EC92E09A83E4
:1036C0008983F70182819381A481B5818B839C8357
:1036D000AD83BE8345E350E0BE016F5F7F4FC801FD
:1036E0000E94C40A892B19F4C12CD12C62C10E94FA
:1036F000E41AF7017783668342E050E0B7016A5F1E
:103700007F4FC8010E94390A81E090E09A83898343
:1037100042E050E0BE016F5F7F4FC8010E94390A4E
:1037200080E091E09A83898342E050E0BE016F5FC0
:103730007F4FC8010E94390A1A82198242E050E084
:10374000BE016F5F7F4FC8010E94390A42E050E01E
:10375000BE016F5F7F4FC8010E94390A42E050E00E
:10376000BE016F5F7F4FC8010E94390A4501F50114
:103770008081882301F164015601F60181912F01B6
:10378000882321F08E3211F06201F6CFC818D908D3
:103790001C141D0474F4CD8641E050E0BE01635F4B
:1037A0007F4FC8010E94390AA601B401C8010E94D6
:1037B000390A4201DCCF1D8641E050E0BE01635F63
:1037C0007F4FC8010E94390AC12CDD24D394DA82CC
:1037D000C98242E050E0BE016F5F7F4FC8010E9486
:1037E000390ADA82C98242E050E0BE016F5F7F4F42
:1037F000C8010E94390AC8010E94810A892B09F474
:1038000073CFE3E0AE2EB12C230122E0420E511C17
:103810000E94E41A3B014C01C8010E94610718167E
:103820001906A4F00E94E41ADC01CB01861997095D
:10383000A809B90989389341A105B105D0F462E31B
:1038400070E080E090E00E94AA1AE6CFF701428182
:10385000538164817581808D918DA28DB38D4817C0
:1038600059076A077B0749F4848D958DC59729F41C
:1038700009C0CC24CA94DC2C93C05EEFC52EDD2495
:10388000DA948EC0F70181A192A10C970CF4E9C0E3
:103890004CE050E0BE016F5F7F4FC8010E941907E6
:1038A0008B819C819827892798279A8B898BF70190
:1038B0004681578129813A814217530709F0C2C0D6
:1038C00097FFC0C08F709270892B09F0C0C06F80C5
:1038D00078847624672476246114710409F4BCC0CA
:1038E000C12CD12C8D819E81982789279827C816B5
:1038F000D90608F466C0812C912C41E050E0BE014D
:103900006D5E7F4FC8010E9419074B89842F807C10
:1039100009F076C0442331F050E060E070E0C80167
:103920000E9419078B898111E8CF42E050E0BE0167
:10393000615F7F4FC8010E94190742E050E0BE015D
:10394000635F7F4FC8010E94190744E050E060E0C8
:1039500070E0C8010E94190742E050E0BE016F5EAE
:103960007F4FC8010E9419078F85988949895A8914
:103970008115914009F04DC0CD84DE84DC24CD2436
:10398000DC2481E0C816D10409F043C0411554403D
:1039900009F053C044E050E0B201C8010E94190789
:1039A00021E0A21AB10829F0FFEFCF16DF0609F4D3
:1039B0002FCFC8010E945708C60158C08EEF9FEF55
:1039C00055C041E050E0BE01635F7F4FC8010E94D7
:1039D00019074D85442331F050E060E070E0C801E4
:1039E0000E9419078D858111ECCF44E050E060E022
:1039F00070E0C8010E941907FFEFCF1ADF0A72CFEB
:103A000041E050E060E070E0C8010E9419071B8AA5
:103A100089CF54274527542760E070E0C8010E94F1
:103A20001907FFEF8F1A9F0A6814790409F065CF10
:103A300096EFC92EDD24DA94B3CF77EFC72EDD24BD
:103A4000DA94AECF4CEFC42EDD24DA94A9CF3BEF4D
:103A5000C32EDD24DA94A4CF2AEFC22EDD24DA941B
:103A60009FCF8DEFC82EDD24DA949ACF63960FB6E0
:103A7000F894DEBF0FBECDBFDF91CF911F910F91A4
:103A8000FF90EF90DF90CF90BF90AF909F908F907E
:103A90007F906F905F904F9008951F920F920FB696
:103AA0000F9211242F933F938F939F93AF93BF93C4
:103AB0008091CC069091CD06A091CE06B091CF0614
:103AC0003091CB0623E0230F2D3720F40196A11D62
:103AD000B11D05C026E8230F0296A11DB11D20933C
:103AE000CB068093CC069093CD06A093CE06B093E0
:103AF000CF068091D0069091D106A091D206B091C8
:103B0000D3060196A11DB11D8093D0069093D106D6
:103B1000A093D206B093D306BF91AF919F918F919E
:103B20003F912F910F900FBE0F901F90189580918D
:103B30000706909108060C94822BCF93DF93CDB7A4
:103B4000DEB72D970FB6F894DEBF0FBECDBF7894C9
:103B500084B5826084BD84B5816084BD85B5826092
:103B600085BD85B5816085BD80916E008160809343
:103B70006E001092810080918100826080938100AC
:103B800080918100816080938100809180008160BC
:103B9000809380008091B10084608093B100809117
:103BA000B00081608093B00080919100826080932A
:103BB00091008091910081608093910080919000AC
:103BC0008160809390008091A10082608093A10029
:103BD0008091A10081608093A1008091A00081600C
:103BE0008093A000809121018260809321018091C7
:103BF0002101816080932101809120018160809367
:103C0000200180917A00846080937A0080917A000C
:103C1000826080937A0080917A00816080937A003C
:103C200080917A00806880937A001092C100E091C0
:103C30005C05F0915D0582E08083E0915805F0918C
:103C400059051082E0915A05F0915B058FEC808355
:103C500010926405E0916005F091610586E0808333
:103C6000E0915E05F0915F05808180618083E09145
:103C70005E05F0915F05808188608083E0915E053C
:103C8000F0915F05808180688083E0915E05F0910E
:103C90005F0580818F7D808307EC12E01A830983A2
:103CA0008091340690913506A0913606B091370682
:103CB0008B839C83AD83BE83CE0101960E94CB1083
:103CC0008CE893E090931B0680931A061A8309836D
:103CD00080913A0690913B06A0913C06B0913D063A
:103CE0008B839C83AD83BE83CE0101960E94020F1D
:103CF0006CED75E080E090E00E94AA1A62E083E03B
:103D00000E946E1A61E084E00E946E1A84E00E94B4
:103D1000D60E62E085E00E946E1A62E086E00E94A4
:103D20006E1A61E087E00E946E1A87E00E94D60E4C
:103D300061E088E00E946E1A88E00E94D60E62E080
:103D400089E00E946E1A61E08BE00E946E1A8BE09F
:103D50000E94D60E6DE080E00E946E1A62E083E160
:103D60000E946E1A83E10E94D60E6DEE72E08CE422
:103D700095E00E945F1789EE95E090930605809389
:103D80000505109294041092930410929B041092D3
:103D9000BD041092040511E0109303051092FE0477
:103DA00084E10E94D60E85E10E94D60E8091B90072
:103DB0008E7F8093B9008091B9008D7F8093B90088
:103DC00088E48093B80085E48093BC0089E093E1A7
:103DD00090935504809354048AE093E190935304A4
:103DE0008093520464E670E080E090E00E94AA1A9A
:103DF00010939A0480E48093BC0410929B04109268
:103E0000BD048091050590910605DC01ED91FC91C2
:103E10000190F081E02D67EE199581E00E947A0E05
:103E200061E080E40E94380E109294048093930421
:103E30008091050590910605DC01ED91FC910284CD
:103E4000F385E02D1995182F682F607470E08CEFC2
:103E500092E00E94230E612F647070E08DE093E089
:103E60000E94230E1270612F70E08EE193E00E9499
:103E7000230E22242394312C0E94FC17811172C13D
:103E800012E00E94FC1781116DC163E373E08CE4C2
:103E900095E00E94B6130E94FC1781110BC180911E
:103EA000050690910606DC01ED91FC910688F789E4
:103EB000E02D1995882391F03092100620920F067C
:103EC00087E0E6E1F2E0DE01119601900D928A951D
:103ED000E1F7DE01119685E090E039C0609122069D
:103EE0007091230680910506909106064091240664
:103EF00050912506DC01ED91FC916115710521F0D1
:103F00000088F189E02D18C00684F785E02DA7EC24
:103F10008A2EA2E09A2E9A828982C0901E06D090A4
:103F20001F06E0902006F0902106CB82DC82ED8215
:103F3000FE82BE016F5F7F4F1995019709F4BCCFD8
:103F4000EEEFFFEFF0932906E0932806FBC42D91D6
:103F5000E0910706F0910806E80FF91F208301960B
:103F60008C309105A1F7E0900706F0900806D70184
:103F70001C961C931C9780910C061D968C931D9784
:103F800080910B061E968C93C0900906D0900A066D
:103F9000B60181E593E00E9409264196C816D9062C
:103FA00008F47CC04FE050E0B70181E593E00E9447
:103FB0007317AC01455051096091070670910806CE
:103FC00080E10E9493170E94E41A60931106709397
:103FD000120680931306909314066093150670934F
:103FE0001606809317069093180680910506909107
:103FF0000606DC01ED91FC910084F185E02D199518
:10400000892B31F50E94E41A20910D0630910E069D
:10401000C0901506D0901606E0901706F09018068E
:104020004B015C018C189D08AE08BF08A8EEB3E0F8
:104030000E94902886169706A806B906B0F27CEF73
:10404000A72EBB24BA94B0922906A092280626C0B7
:10405000CE0108960E94D00C64307105810591054F
:10406000E9F4E0910706F09108068381811111C0FF
:104070000E94E41A60931506709316068093170643
:10408000909318061092190610922906109228068D
:1040900011C090E090932906809328068091050630
:1040A00090910606DC01ED91FC910488F589E02DE4
:1040B000199548C46FE573E08CE495E00E945F17A2
:1040C00069E673E085E793E00E943318E090090603
:1040D000F0900A06B7018EE793E00E940926099640
:1040E000E816F90608F4CDCE0E94FC17882309F4DF
:1040F000C8CE80910F0690911006019629F09093FA
:10410000100680930F0604C03092100620920F060E
:10411000E0910706F0910806809110068583E091F2
:104120000706F091080680910F06868360910706C6
:104130007091080647E050E08EE793E00E94731705
:10414000E0910706F0910806E80FF91F1082AC0114
:1041500044505109609107067091080682E80E9458
:1041600093178FCE0E94FC17882309F46AC10E941E
:10417000E41A4B015C0120910B0630910C06A8EE6D
:10418000B3E00E9490280091150610911606209128
:1041900017063091180675016401C01AD10AE20AA7
:1041A000F30A6C157D058E059F05A0F000911106A0
:1041B00010911206209113063091140675016401C6
:1041C000C01AD10AE20AF30A6C157D058E059F0517
:1041D00008F047C0809119068823A1F06CEFE62E05
:1041E000FF24FA94F0922906E092280680910506B1
:1041F00090910606DC01ED91FC910488F589E02D93
:1042000019951FC1E0910706F091080680EC8083A4
:10421000E0910706F09108061182809105069091C1
:1042200006066091070670910806DC01ED91FC918D
:104230000280F381E02D42E050E019958092110652
:1042400090921206A0921306B09214068092150660
:1042500090921606A0921706B092180681E08093FD
:1042600019068091050690910606DC01ED91FC91FE
:104270000084F185E02D1995892B09F4E2C0CE0167
:1042800001960E94D00C2B013C01672B09F4D7C08A
:104290008092150690921606A0921706B092180604
:1042A000E0910706F09108068081807F803309F055
:1042B000A6C080911A0690911B06892B09F4C1C0F3
:1042C000298130E0C90102968E0F9F1FDF01A20FE6
:1042D000B31F1196EC90F12CFE2CEE24DC014C91D6
:1042E000E40EF11CB9016D5F7F4F6E0F7F1FA701B8
:1042F0000E94102C8981E0910706F0910806EE0DCE
:10430000FF1DE80FF11D1282A0910706B09108066B
:10431000298130E06901E2E0CE0ED11CCA0EDB1E1D
:104320001C9116701D8700911A0610911B06FD85C1
:10433000F23009F051C0B701620F731FFD01E60FA3
:10434000F71F838190E0982F88274481FC01E40FB8
:10435000F11DFA87E9874BEF5FEF421B530B4E19B4
:104360005F09440D551D6B5F7F4F6A0F7B1FC601B0
:10437000F8011995E0910706F091080680E4808322
:10438000E0910706F0910806CD84C182E09107060E
:10439000F0910806DA84D282E0910706F0910806CF
:1043A000E984E382809105069091060660910706F4
:1043B00070910806DC01ED91FC910280F381E02D03
:1043C00044E050E019958092110690921206A09256
:1043D0001306B092140635C04DEF5FEF421B530B2E
:1043E0004E195F09440D551D2D5F3F4F2E0D3F1D8A
:1043F000BD01620F731FC601F801199522C0803CF0
:10440000C9F480ED8083E0910706F09108061182DF
:104410008091050690910606609107067091080646
:10442000DC01ED91FC910280F381E02D42E050E04F
:10443000199507C0803D29F41092190602C00E9408
:10444000FC170E94E41A00912E0610912F0620916D
:104450003006309131060053184F2F4F3F4F06174B
:1044600017072807390708F0FCC00E94E41A609378
:104470002E0670932F06809330069093310685EFB9
:104480000E94E2109C01265E3340BC0180E090E077
:104490002230310518F40E94C1290EC00E94C129A2
:1044A00020E030E04AEF5AE30E94782A20E030E032
:1044B00040EC50E40E94A7284B015C0183EF0E946E
:1044C000E2109C01265E3340BC0180E090E0223087
:1044D000310518F40E94C1290EC00E94C12922E5AD
:1044E00038EB4FE25BE30E94782A26E636E64BE3A0
:1044F00052E40E94A7286B017C016EE973E08CE412
:1045000095E00E945F17A7019601C701B6010E94BE
:10451000E52A882319F06CEB73E01AC026013701F5
:10452000E89477F82FEF3FEF4FE75FE7C301B20161
:104530000E94E52A811111C02FEF3FEF4FE75FE79F
:10454000C301B2010E94142918163CF460EC73E018
:104550008CE495E00E94B61363C02FEF3FEF4FE766
:104560005FE4C701B6010E94732A18161CF464ECBC
:1045700073E0EECF2FEF3FEF4FE75FECC701B601DF
:104580000E94142987FDF3CF20E030E0A901C70184
:10459000B6010E94142987FF09C06DE28CE495E002
:1045A0000E94AF13C701B601905802C0C701B601FF
:1045B0002DEC3CEC4CE45DE30E94A8282B013C016F
:1045C0000E94922969877A878B879C870E94C129DC
:1045D0009B01AC01C301B2010E94A7282B013C0141
:1045E0002AE049855A856B857C858CE495E00E949C
:1045F000CB136EE28CE495E00E94AF1320E030E034
:1046000040E251E4C301B2010E94782A0E9492293B
:10461000AB0160E070E02AE08CE495E00E94CB13EF
:104620006AEE72E08CE495E00E94B61303E814E0B1
:1046300021E041E0C701B6010E94E92503E714E04B
:1046400021E041E0C501B4010E94E925B80188ECF0
:1046500093E00E94331863E874E088ED93E00E94D1
:1046600033180E94E41A00912A0610912B0620911B
:104670002C0630912D060053184F2F4F3F4F061731
:1046800017072807390778F583E10E94451A21E0CA
:10469000892B09F420E080917204281721F1809180
:1046A000700490917104019690937104809370044A
:1046B0000B97CCF080916E0490916F0401969093CB
:1046C0006F0480936E042093720410927104109210
:1046D00070040E94E41A60932A0670932B0680935C
:1046E0002C0690932D0660916E0470916F0480915A
:1046F0006C0490916D0468177907E1F1072E000CA6
:10470000880B990B0E94C3290AE614E020E041E0DF
:104710000E94E925B80184EE93E00E94331860916D
:104720006E0470916F04072E000C880B990B0E9489
:10473000C32923E333E343E350E40E9419290E9491
:104740008B29072E000C880B990B0E94C32908E6C1
:1047500014E020E041E00E94E925B80187EF93E0F2
:104760000E94331880916E0490916F0490936D04B1
:1047700080936C0489E00E94451A7C019093670441
:10478000809366048AE00E94451A009749F43092AB
:10479000070220920602B1E0EB16F10451F411C0B9
:1047A000E1E0EE16F10429F4019759F482E090E07B
:1047B00004C0EF2831F483E090E0909307028093E7
:1047C00006026091060270910702809104029091A6
:1047D000050268177907C9F0072E000C880B990BA2
:1047E0000E94C32904E614E020E041E00E94E9258C
:1047F000B8018CE094E00E943318809106029091F9
:104800000702909305028093040285E00E94451AF6
:104810007C01909363048093620486E00E94451AB1
:10482000009749F43092030220920202F1E0EF1661
:10483000F10451F411C021E0E216F10429F40197CA
:1048400059F482E090E004C0EF2831F483E090E076
:10485000909303028093020260910202709103021E
:10486000809100029091010268177907C9F0072E24
:10487000000C880B990B0E94C32900E614E020E08D
:1048800041E00E94E925B80189E194E00E943318D3
:1048900080910202909103029093010280930002A2
:1048A00083E00E94451ABC0190935F0480935E04EC
:1048B00080915C0490915D0468177907C9F0072E18
:1048C000000C880B990B0E94C3290AE514E020E034
:1048D00041E00E94E925B80186E294E00E94331885
:1048E00080915E0490915F0490935D0480935C04DA
:1048F0008DE00E94451A7C018091580490915904E2
:10490000E816F906E1F0B7010F2C000C880B990BA3
:104910000E94C32906E514E020E041E00E94E92559
:10492000B80181E394E00E94331868E374E08CE4FA
:1049300095E00E945F17F0925904E09258040E949B
:104940009E129ACA6FE374E08CE495E00E94B6135D
:10495000C0902806D09029060D2C000CEE08FF0808
:10496000F7FE0EC06DE28CE495E00E94AF13442781
:104970005527BA014C195D096E097F092AE003C069
:104980002AE0B701A6018CE495E00E94CB1366E80B
:1049900073E08CE495E00E945F1768E873E180E0C3
:1049A00090E00E94AA1A6DCACF92DF92EF92FF9216
:1049B0000F931F93CF93DF93ECE4F5E01382128201
:1049C00088EEC82E83E0D82EE12CF12CC482D5824B
:1049D000E682F7828BE492E09183808385EC90E01D
:1049E0009587848784EC90E09787868780EC90E0B9
:1049F000918B808B81EC90E0938B828B82EC90E0AA
:104A0000958B848B86EC90E0978B868B118E128E23
:104A1000138E148EE9EEF5E013821282C482D582E1
:104A2000E682F7828DE592E091838083EEE3F6E003
:104A3000C7ECD2E0D183C083128213821482158224
:104A4000E5EFF5E0D183C0831282138214821582D0
:104A5000E4E4F6E0D183C0831282138214821582CB
:104A6000EAE4F6E0D183C0831282138214821582B5
:104A7000E0E5F6E0D183C0831282138214821582AE
:104A8000E6E5F6E0D183C083128213821482158298
:104A9000ECE5F6E0D183C083128213821482158282
:104AA000E2E6F6E0D183C08312821382148215827B
:104AB000EBEFF5E0D183C08312821382148215825A
:104AC000E8E6F6E0D183C083128213821482158255
:104AD000EDE7F6E0D183C08312821382148215823F
:104AE000E8E3F6E0D183C08320EC228398EA938345
:104AF00084E4848337E93583E2E3F6E0D183C0833D
:104B000022839383848381E485830E94E41A6093E3
:104B10002E0670932F0680933006909331060E94E4
:104B2000E41A60932A0670932B0680932C069093C8
:104B30002D06EEE6F6E013821282C482D582E6826A
:104B4000F78289E992E09183808388E0848788EE08
:104B500093E09687858701E016E0D80113961C92B2
:104B60001E9212978FE692E011969C938E935C961C
:104B7000DC93CE935B975D961D921D921D921C92C5
:104B800090978FEF9FEF98969C938E93979715969B
:104B9000FC93EE93149796961C921E92959780E044
:104BA00091E00E94EA2AF8019783868380E091E0F1
:104BB000918780878FE090E09387828795878487AD
:104BC000DF91CF911F910F91FF90EF90DF90CF90E9
:104BD0000895EF920F931F93CF93DF93E80147FD62
:104BE00002C034E001C034E1042E000C550B57FF25
:104BF00003C0519541955109E32E022F242FAE0198
:104C00000E941426CE01DF91CF911F910F91EF905A
:104C10000895FC016150704001900110D8F7809513
:104C200090958E0F9F1F08958F929F92AF92BF9283
:104C3000CF92DF92EF92FF920F931F93CF93DF9368
:104C4000CDB7DEB729970FB6F894DEBF0FBECDBF44
:104C50006A01122FB02E2BE3201720F0FF24F394CB
:104C6000F00E02C02CE3F22E0F2D27E0AE014F5FB5
:104C70005F4F0E948B27BC014981842F897081304E
:104C800031F0E1FC06C0E0FE06C090E205C09DE206
:104C900003C09BE201C090E05E2D507143FF3CC019
:104CA000911102C083E001C084E0811718F4212F24
:104CB000281B01C020E051110BC0F601822F30E209
:104CC000882319F031938150FBCFC20ED11C20E014
:104CD000992329F0D6019C93F60131966F01C60104
:104CE0000396E2FE0AC03EE4D6013C9341E41196ED
:104CF0004C93119712963C9306C03EE6F601308322
:104D000041E641833283FC01322F40E2332309F430
:104D100042C041933150FACF42FF44C0911102C0CA
:104D200083E001C084E0811718F4212F281B01C003
:104D300020E051110BC0F601822F30E2882319F0D8
:104D400031938150FBCFC20ED11C20E0992329F072
:104D5000D6019C93F60131966F01C6010396E2FEDF
:104D60000BC039E4D6013C933EE411963C93119775
:104D700036E412963C9307C039E6F60130833EE6EE
:104D8000318336E63283FC01322F40E2332319F0BF
:104D900041933150FBCFFC01E20FF11D10828EEFE9
:104DA0009FEFA6C021E030E0911102C020E030E08A
:104DB000161617061CF4FB01319602C0E1E0F0E084
:104DC0002E0F3F1FBB2021F0EB2DF0E0319602C0EB
:104DD000E0E0F0E02E0F3F1FE12FF0E02E173F073D
:104DE0001CF4121B212F01C020E08E2D887159F474
:104DF000F601822F30E2882319F031938150FBCFE6
:104E0000C20ED11C20E0992329F0D6019C93F60113
:104E100031966F0151110BC0F601822F90E3882368
:104E200019F091938150FBCFC20ED11C20E00F2DC1
:104E3000060F9A81342F307144FF03C0913309F477
:104E40000150101624F4093018F008E001C001E008
:104E5000AB0177FF02C040E050E0FB01E41BF50B23
:104E6000A1E0B0E0AC0FBD1FEA0FFB1F8EE2A82E41
:104E70004B01801A91080B2D10E011950195110935
:104E80004F3FBFEF5B0721F4D601AC9211966D0145
:104E9000641775072CF08416950614F4818101C0FF
:104EA00080E3415051093196D60111967D0140179A
:104EB000510724F0D6018C936701E2CF6417750780
:104EC00039F4963320F4953319F4311101C081E39C
:104ED000F6018083F701822F90E2882319F09193E5
:104EE0008150FBCFF701E20FF11D108280E090E0CE
:104EF00029960FB6F894DEBF0FBECDBFDF91CF91DC
:104F00001F910F91FF90EF90DF90CF90BF90AF90E7
:104F10009F908F900895283008F027E03327DA011A
:104F2000990F311D87FD916000966105710539F477
:104F300032602E5F3D9330E32A95E1F708959F3F5D
:104F400030F080387105610509F03C5F3C5F3D93AE
:104F5000913008F08068911DDF93CF931F930F93DA
:104F6000FF92EF92192F987F9695E92F9695969537
:104F7000E90FFF27E256FD4F99273327EE24FF2440
:104F8000A701E70105900894079428F4360FE71E5F
:104F9000F81E491F511D660F771F881F991F069421
:104FA000A1F70590079428F4E70EF81E491F561F35
:104FB000C11D770F881F991F661F0694A1F70590E2
:104FC000079428F4F80E491F561FC71FD11D880FDC
:104FD000991F661F771F0694A1F70590079420F488
:104FE000490F561FC71FD81F990F661F771F881FAD
:104FF0000694A9F784911095177041F0D695C7953E
:1050000057954795F794E7941A95C1F7E4E4F2E0D1
:1050100068941590159135916591959105907FE271
:105020007395E118F10A430B560BC90BD009C0F771
:10503000E10CF11E431F561FC91FD01D7EF47033B3
:1050400011F48A95E6CFE894015030F0080F0AF485
:105050000027021708F4202F2395022F7A3328F017
:1050600079E37D932A95E9F710C07D932A9589F617
:10507000069497956795379517951794E118F10A57
:10508000430B560BC90BD00998F023957E9173956D
:105090007A3308F070E37C932013B8F77E91706147
:1050A0007D9330F0839571E37D9370E32A95E1F76A
:1050B0001124EF90FF900F911F91CF91DF919927CD
:1050C00087FD909508950E949028A59F900DB49F0C
:1050D000900DA49F800D911D11240895A1E21A2E18
:1050E000AA1BBB1BFD010DC0AA1FBB1FEE1FFF1F8C
:1050F000A217B307E407F50720F0A21BB30BE40BDC
:10510000F50B661F771F881F991F1A9469F7609522
:105110007095809590959B01AC01BD01CF010895DC
:10512000A29FB001B39FC001A39F700D811D1124E8
:10513000911DB29F700D811D1124911D0895EE0FD8
:10514000FF1F881F8BBF0790F691E02D19945058D0
:10515000BB27AA270E94BF280C94392A0E942B2A19
:1051600038F00E94322A20F039F49F3F19F426F4D7
:105170000C94282A0EF4E095E7FB0C94222AE92FE0
:105180000E944A2A58F3BA176207730784079507E3
:1051900020F079F4A6F50C946C2A0EF4E0950B2E11
:1051A000BA2FA02D0B01B90190010C01CA01A00179
:1051B0001124FF27591B99F0593F50F4503E68F1D4
:1051C0001A16F040A22F232F342F4427585FF3CF15
:1051D000469537952795A795F0405395C9F77EF4E6
:1051E0001F16BA0B620B730B840BBAF09150A1F02F
:1051F000FF0FBB1F661F771F881FC2F70EC0BA0FB5
:10520000621F731F841F48F4879577956795B7953C
:10521000F7959E3F08F0B0CF9395880F08F0992737
:10522000EE0F9795879508950E94FE2908F481E076
:1052300008950E942D290C94392A0E94322A58F090
:105240000E942B2A40F029F45F3F29F00C94222A77
:1052500051110C946D2A0C94282A0E944A2A68F352
:105260009923B1F3552391F3951B550BBB27AA271F
:1052700062177307840738F09F5F5F4F220F331F59
:10528000441FAA1FA9F335D00E2E3AF0E0E832D021
:1052900091505040E695001CCAF72BD0FE2F29D024
:1052A000660F771F881FBB1F261737074807AB07F6
:1052B000B0E809F0BB0B802DBF01FF2793585F4F6B
:1052C0003AF09E3F510578F00C94222A0C946D2AF6
:1052D0005F3FE4F3983ED4F3869577956795B7954D
:1052E000F7959F5FC9F7880F911D9695879597F958
:1052F0000895E1E0660F771F881FBB1F62177307D1
:105300008407BA0720F0621B730B840BBA0BEE1FE5
:1053100088F7E09508950E9492296894B1110C9441
:105320006D2A08950E94522A88F09F5798F0B92F4D
:105330009927B751B0F0E1F0660F771F881F991FCA
:105340001AF0BA95C9F714C0B13091F00E946C2AD6
:10535000B1E008950C946C2A672F782F8827B85FE6
:1053600039F0B93FCCF3869577956795B395D9F722
:105370003EF490958095709561957F4F8F4F9F4F2C
:105380000895E89409C097FB3EF490958095709538
:1053900061957F4F8F4F9F4F9923A9F0F92F96E981
:1053A000BB279395F695879577956795B795F111F6
:1053B000F8CFFAF4BB0F11F460FF1BC06F5F7F4F93
:1053C0008F4F9F4F16C0882311F096E911C07723A5
:1053D00021F09EE8872F762F05C0662371F096E8AE
:1053E000862F70E060E02AF09A95660F771F881F7D
:1053F000DAF7880F9695879597F90895990F000821
:10540000550FAA0BE0E8FEEF16161706E807F90796
:10541000C0F012161306E407F50798F0621B730B31
:10542000840B950B39F40A2661F0232B242B252BB2
:1054300021F408950A2609F4A140A6958FEF811D55
:10544000811D089597F99F6780E870E060E00895F6
:105450009FEF80EC089500240A941616170618068C
:105460000906089500240A94121613061406050668
:105470000895092E0394000C11F4882352F0BB0FF9
:1054800040F4BF2B11F460FF04C06F5F7F4F8F4F5C
:105490009F4F089557FD9058440F551F59F05F3F97
:1054A00071F04795880F97FB991F61F09F3F79F046
:1054B00087950895121613061406551FF2CF4695C8
:1054C000F1DF08C0161617061806991FF1CF86954A
:1054D0007105610508940895E894BB27662777272E
:1054E000CB0197F908950E94FE2908F48FEF0895E3
:1054F0000E948B2A0C94392A0E942B2A38F00E9491
:10550000322A20F0952311F00C94222A0C94282A98
:1055100011240C946D2A0E944A2A70F3959FC1F3BE
:10552000950F50E0551F629FF001729FBB27F00D51
:10553000B11D639FAA27F00DB11DAA1F649F6627A6
:10554000B00DA11D661F829F2227B00DA11D621FF5
:10555000739FB00DA11D621F839FA00D611D221FAF
:10556000749F3327A00D611D231F849F600D211D93
:10557000822F762F6A2F11249F5750409AF0F1F016
:1055800088234AF0EE0FFF1FBB1F661F771F881F7F
:1055900091505040A9F79E3F510580F00C94222A6B
:1055A0000C946D2A5F3FE4F3983ED4F3869577958B
:1055B0006795B795F795E7959F5FC1F7FE2B880F25
:1055C000911D9695879597F908950E94FE29880B5D
:1055D000990B08950F931F93CF93DF93823091051A
:1055E00010F482E090E0E091D606F091D70620E03A
:1055F00030E0A0E0B0E0309719F1408151810281A4
:10560000138148175907C8F08417950769F4109754
:1056100031F012960C93129713961C9327C00093A7
:10562000D6061093D70622C02115310519F042176E
:10563000530718F49A01BD01EF01DF01F801DBCF38
:1056400021153105F9F0281B390B2430310580F480
:105650008A819B816115710521F0FB01938382830F
:1056600004C09093D7068093D606FE01329644C0BC
:10567000FE01E20FF31F8193919322503109398388
:1056800028833AC02091D4063091D506232B41F4CB
:1056900020911202309113023093D5062093D40644
:1056A00020911002309111022115310541F42DB7DE
:1056B0003EB74091140250911502241B350BE09126
:1056C000D406F091D506E217F307A0F42E1B3F0B8A
:1056D0002817390778F0AC014E5F5F4F2417350764
:1056E00048F04E0F5F1F5093D5064093D406819328
:1056F000919302C0E0E0F0E0CF01DF91CF911F91E4
:105700000F910895CF93DF93009709F481C0FC01B6
:10571000329713821282A091D606B091D7061097C5
:1057200081F420813181820F931F2091D406309122
:10573000D5062817390751F5F093D506E093D4061E
:1057400067C0ED0120E030E0CE17DF0740F44A816A
:105750005B819E0141155105F1F0EA01F5CFD3833C
:10576000C28340815181840F951FC817D90759F40E
:1057700088819981840F951F0296918380838A8105
:105780009B81938382832115310529F4F093D706F9
:10579000E093D6063DC0E901FB83EA834991599124
:1057A000C40FD51FEC17FD0761F480819181840F30
:1057B000951F0296E90199838883828193819B8357
:1057C0008A83E0E0F0E012968D919C911397009708
:1057D00019F0FD01DC01F7CF8D919C9111979D018E
:1057E0002E5F3F4F820F931F2091D4063091D50634
:1057F0002817390769F4309729F41092D7061092C8
:10580000D60602C013821282B093D506A093D406A6
:10581000DF91CF91089581E090E0F8940C94322CC0
:105820006817790768F4FB01DC01E40FF51FA40F8A
:10583000B51F02C002900E9241505040D8F7089513
:105840000C94292CDC0101C06D9341505040E0F7CD
:105850000895FB01DC0102C001900D9241505040BF
:10586000D8F7089512E0C0E3D2E000E006C0802F30
:10587000FE010E949F282196011DC133D10780E0BF
:085880000807A9F7F894FFCF17
:105888000200010002000100DEEDBAFEFEED00C0DC
:105898000000D806200000044D51545404000000B4
:1058A800007202390AEA020B1388023807E2051B64
:1058B8000A16085708C40AED02810A61071907C5C4
:1058C80002B502B102AD02000000002F129C11C601
:1058D800117C12F711D511E911000000006413378B
:1058E80013EA020B132F131B130C13000000007490
:1058F800035403EA02E90200000000AD139C11EA18
:1059080002E902AD13AD13AD1300000000AD139C06
:1059180011EA02E902000000009702B00BAD05DBB6
:10592800083A06BD07F105390CF008D707A3088027
:1059380008E102DE02DC028C02D202810B3B0B0C76
:105948000BCE0200000000141400000000AD13018B
:10595800005E0000004D65737361676520617272B7
:1059680069766564205B005D20000D0A0053485489
:105978003230204578616D706C652100456E642079
:105988006F6620626174746572793A2000486561B7
:1059980074657220656E61626C65643A20004469C2
:1059A8007361626C65204F54502072656C6F61643E
:1059B8003A2000417474656D7074696E67204D51AA
:1059C800545420636F6E6E656374696F6E2E2E2E4D
:1059D8000061726475696E6F436C69656E7400630B
:1059E8006F6E6E65637465640068656C6C6F2077B4
:1059F8006F726C64006F7574546F70696300696EC0
:105A0800546F706963002074727920616761696EF0
:105A180020696E2035207365636F6E64730054656A
:105A280073742061667465722052656164205465E0
:105A38006D7020616E642048756D3A006E616E006D
:105A4800696E66006F7666006761726167652F48E8
:105A5800756D6964697479006761726167652F544F
:105A6800656D70006761726167652F7261696E6349
:105A78006F756E746572006761726167652F726118
:105A8800696E636F756E7465726D6D0067617261C2
:105A980067652F646F6F7231006761726167652F88
:105AA800646F6F7232006761726167652F70697227
:105AB800006761726167652F73656E736F72006648
:105AC80061696C65642C2072633D00796573006EB2
:025AD8006F005D
:00000001FF
